:020000041008E2
:1000000000000828B5420810B1480810B946081089
:10001000B5480810B9480810BD4808100000000095
:1000200000000000000000000000000081470810F0
:10003000C148081000000000C5480810C948081051
:10004000FB3F081021400810474008106D40081081
:1000500093400810B9400810DF400810054108100F
:10006000CD480810D1480810D5480810D9480810C4
:10007000DD480810E1480810E5480810E948081074
:1000800040F0200070472DE9F14FB0B09246049146
:100090000DF142013A9A2B9199464A7000200AE0EC
:1000A0001AF8011B0498309A90470028049000F039
:1000B00034860D98401C0D909AF8000050B1252808
:1000C000EED1002100220791089209910A920B912A
:1000D0000C9204E00D9800F022BE41F001011AF8E4
:1000E000010F2028F9D023280CD02B2804D02D284C
:1000F00005D0302809D00BE041F00201EFE741F0D4
:100100000401ECE741F00801E9E741F01001E6E7FE
:100110002A280FD1D9F8002052F8040BC9F8002082
:1001200000280F9003D540420F9041F004010AF1DE
:10013000010A14E00F92DFF8EC3B0AE00F989842B6
:1001400005DA00EB800402EB4402303A0F920AF128
:10015000010A9AF80020A2F130000A28EED39AF89A
:1001600000002E2803D04FF0FF320E9229E01AF83B
:10017000010F2A2809D1D9F8000050F8042BC9F83A
:1001800000000E920AF1010A1BE02D280CBF0AF1B3
:10019000010A002000220E92DFF8884B0BE040B9E4
:1001A0000E9AA24205DA02EB820503EB4503303BCF
:1001B0000E930AF1010A9AF80030A3F130020A2ADC
:1001C000EDD3ADF840100FF660309AF8001000F053
:1001D000EDFE08B11AF8010B8DF842009DF84200BF
:1001E000682805D19AF8000068280CD1622106E041
:1001F0006C2804BF9AF800006C2804D171218DF896
:1002000042100AF1010A12A806901AF801BBBBF1CC
:1002100025012CD01C3900F09481091F022940F2DD
:100220009081133900F0AB84093900F08A81891E6E
:1002300000F04085491E00F0ED84491E022940F27D
:100240008081091F00F0E684491F00F0EF80491EFD
:1002500000F09584491E00F0D780C91E0CD0891E7D
:1002600000F08D84C91E00F08A8400F02EBD0123A9
:100270000793252100F026BDD9F8000050F8044B63
:10028000C9F80000002C059440F0AB802B99487809
:10029000002800F0A1804FF0FF340FF6942000F00A
:1002A00095FE241A40F0398500F01BBD01236A46F3
:1002B00002A9304600F000FE002840F02E85641EA2
:1002C000F4D13096079C12AF74B1309E17F8011B21
:1002D0000498B0470028049000F01F850D98401C3A
:1002E000641E0D90F2D130960A9C3021002C8DF8BE
:1002F00000100CDD309E01236A4602A9304600F052
:10030000DBFD002840F00985641EF4D13096059F7E
:10031000089C74B1309E17F8011B0498B047002860
:10032000049000F0FA840D98401C641E0D90F2D1E8
:1003300030960B9C3021002C8DF800100CDD309E87
:1003400001236A4602A9304600F0B6FD002840F0BD
:10035000E484641EF4D1309605980899099C4718E6
:1003600074B1309E17F8011B0498B0470028049020
:1003700000F0D3840D98401C641E0D90F2D130968D
:100380000C9C3021002C8DF800100CDD309E0123D8
:100390006A4602A9304600F08FFD002840F0BD8477
:1003A000641EF4D130969DF8400041077FF584AE7D
:1003B0002020002D8DF800007FF77EAE309C0123B9
:1003C0006A4602A9204600F077FD002840F0A58487
:1003D0006D1EF4D130946FE60FF63C30059000F0BE
:1003E00080BC0E9D002D04D5204600F00FFE044673
:1003F00007E02A46204600F025FE002814BF041B13
:100400002C46089400F06DBCD9F8001051F8040B8C
:10041000C9F8001020F00004002121F0FF35CDE9DB
:10042000024512AB0593782100F040BC2B99487827
:1004300020B14FF0FF340FF6B02030E79DF84200B6
:10044000622860D0682817D06A283FD06C2806D070
:10045000712847D074282CD07A281DD062E0D9F8B2
:10046000001051F8040BC9F80010002866D14FF0B5
:10047000FF340FF68C2012E7D9F8001051F8040B66
:10048000C9F8001020B94FF0FF340FF6742006E7CA
:100490000D99018000F025BCD9F8001051F8040B2B
:1004A000C9F80010002849D14FF0FF340FF6502052
:1004B000F5E6D9F8001051F8040BC9F8001000282F
:1004C0003CD14FF0FF340FF63820E8E6D9F80010A1
:1004D00051F8040BC9F8001080B94FF0FF340FF643
:1004E0002020DCE6D9F8001051F8040BC9F8001000
:1004F00020B94FF0FF340FF60820D0E60D9AD3173D
:10050000C0E90023EDE3D9F8001051F8040BC9F855
:10051000001020B94FF0FF340FF6E410BFE60D993C
:100520000170DEE3D9F8001051F8040BC9F800108F
:1005300020B94FF0FF340FF6C810B0E60D990160F6
:10054000CFE39DF842004C2807BFD9F80010CA1D20
:10055000D9F80000C21D22F00702C9F80020D2E934
:1005600000010832C9F80020CDE90201C80F02D00D
:1005700007982D210AE0BDF84000810702D50798B1
:100580002B2103E0C00705D50798202112AA11549A
:10059000401C079012A807994BF0200300EB010CB8
:1005A000DDE90201CDE92C01612BCDF814C021ACAD
:1005B0000BD00E98002848BF062105D404BF4BF08D
:1005C0002000672801D101210E91DDE902014F00D1
:1005D00047EAD0777E15FF174FF0FF32974208BFEA
:1005E000964210D1090341EA10510003002908BFC7
:1005F000002808D0ABF1610503211A2D089118D30A
:100600000FF61C1110E0DDE902014A00521512F14B
:10061000010F11D108030FD1ABF1610503211A2D90
:1006200008911FD30FF600110322604600F036FD3B
:1006300057E30FF6E801F7E7DDE902016A4600F04B
:1006400081FDCDE902014BF02000612811D1059810
:1006500030210170821C0592BBF1610F0CBF782123
:10066000582102E00FF6BC01DEE741700798801CBC
:100670000790DDE9020120F0000231F0004308BFDD
:10068000002A02D10026002542E14BF02008B8F1F3
:10069000610F40F092800E98002847BF2121019100
:1006A000401C0190019FDDE92C017F1C00220023EA
:1006B000DDE9024500F07EFD38BF85F00045009978
:1006C0008DF88420091F002F00910DF1850632DD81
:1006D000204629460022002300F086FD2BD21C2252
:1006E00000F09CFD04460D4600F01AFEFF1F002F8F
:1006F000804609DD00F01BFE02460B4620462946D7
:1007000000F01CFE04460D46F01D0721B8F1000F55
:100710000CDD491E5EBF08F00F0200F8012D4FEA04
:100720002818F3D502E0002200F8012D491EFAD561
:10073000C61D002FCCDC0DF18500361A01980DF195
:1007400085048642D8BF304600282FD4B04206DA4E
:100750000DF185010A5C082AA8BF0F2100DA0021EB
:10076000024621AB134400E0401E13F80159521E0B
:100770008D42F9D00F2904D10DF185018B5C5B1CF2
:100780008B54002A04D50099091D21AC401C00910E
:10079000411E0BD4621813783033DDB23A2DA4BF5A
:1007A0005B443A3B491E02F80139F4D50E99002901
:1007B00040F1AC80421E0E92A8E00099DFF8E826D6
:1007C00047F29750414391FBF2F20092DDE92C454C
:1007D000C2F10702002A25F0004504DD2046294623
:1007E00000F03EFB0BE052420020DFF8C01600F0A4
:1007F00037FB02460B462046294600F0A8FD04467A
:100800000D46B8F1660F06BF009F0A3706270E98FF
:100810003F18142FC8BF142730208DF884000DF125
:100820008506002F34DD2046294600F099FD01465B
:100830000A4606F1080304200A26B2FBF6F606EB88
:10084000860EA2EB4E02303203F8012C0A22B6FBD0
:10085000F2F202EB820EA6EB4E063036401E03F893
:10086000026DE9D1083F002F03F10806D9DD0846E3
:1008700000F07DFD02460B462046294600F05EFD55
:100880000022DFF82C3600F079FD04460D46CAE759
:100890000DF18500361A0DF1850404E00098401E24
:1008A000761E0090641C20783028F7D0B8F1660FCF
:1008B00002D10098401C04E0B8F1650F0CBF012084
:1008C00000200E9940188642B8BF701E00281DD423
:1008D000B04204DA215C3429C8BF392100DC302160
:1008E0000246631E9D1800E0401E15F80169521E65
:1008F0008E42F9D0392902D1A15C491CA154002AA9
:1009000004D50099491C1C46401C00910646009DD8
:100910000E9F30B2002802DC01260FF210644BF06B
:100920002000662808BF6D1C15D067280FFA85F8CF
:1009300041D118F1040F44DBB84542DA9DF840007C
:100940006D1C010703D430B2B842D8BF074628B2A5
:100950003F1A48BF00270FFA85F8B8F1000F00F3DF
:10096000AF800898411C0891302205990A54002F45
:1009700003DC9DF84000010705D50898411C08914B
:100980002E2205990A5417EB080FB8BF7D422DB2ED
:100990006842ED1932B20B909542B8BF2E46059BC6
:1009A000089836B2099632462146184400F076FB84
:1009B000AD1B0C95CCE0BBF1610F15D14FF0700B66
:1009C00017E030B2B84204DA9DF840100A0758BF69
:1009D00007467F1E48BF0027BBF1670F14BF4FF0CB
:1009E000450B4FF0650B04E0BBF1410F08BF4FF022
:1009F000500B0898411C0891002F059914F8012B01
:100A00000A5403DC9DF84000010719D50898411CE1
:100A100008912E2205990A54002F11DD761E30B25E
:100A20008742B8BF3E460598089B32B2214618441B
:100A300000F034FB089836B23018BF1B08900B97B3
:100A4000059808990844B8F1000F80F800B003D465
:100A50002B224270821C04E02D2145464170821CED
:100A60006D4200212CAB28460AE004460A2094FB84
:100A7000F0F000EB8005A4EB450403F8014B491CA2
:100A800000B20028F1DC012906DC4BF020006528CB
:100A900004BF302002F8010B00292CAB08D1302014
:100AA00002F8010B06E0491E585C303002F8010BD9
:100AB0000029F8DC059908980844121A099247E0C1
:100AC00030B229B288421BDA0598089B32B221461F
:100AD000184400F0E3FA089936B271180891A8EBAF
:100AE0000600002F0B9003DC9DF84000020705D59F
:100AF000059A2E2050540999491C09910C9727E01A
:100B00000598089B2AB22146184400F0C7FA0898B5
:100B1000761B4044002F089003DC9DF840100A0724
:100B200004D5411C08912E2205990A5430B28742FF
:100B3000B8BF3E460598089B32B204EB0801184442
:100B400000F0ACFA089836B23018BE1B08900B962D
:100B50009DF8400000F01400102840F0C280079A71
:100B600008980B99821809988A1882180C980F997E
:100B70008018884280F2B580081A0A90B1E09DF88A
:100B80004200622808D068280ED06A2814D06C2849
:100B90001FD0712810D01CE0D9F8001051F8040BB8
:100BA000C9F80010C0B21AE0D9F8001051F8040BCF
:100BB000C9F8001080B212E0D9F80000C21D22F07E
:100BC0000702C9F80020D2E900010832C9F8002064
:100BD00006E0D9F8001051F8040BC9F80010002104
:100BE000CDE902019DF8400001075AD5DDE9022355
:100BF000002B08BF002A54D04BF02000782850D199
:100C0000079812A930220A54401C431C079301F88C
:100C100000B046E09DF84200622808D068280ED057
:100C20006A2814D06C281FD0712810D01CE0D9F885
:100C3000001051F8040BC9F8001040B21AE0D9F8BE
:100C4000001051F8040BC9F8001000B212E0D9F8F6
:100C50000000C21D22F00702C9F80020D2E90001FD
:100C60000832C9F8002006E0D9F8001051F8040B4A
:100C7000C9F80010C117CDE90201002902D5079873
:100C80002D210AE0BDF84000810702D507982B21ED
:100C900003E0C00705D50798202112AA1154401C73
:100CA000079012A8079901440591594602A800F03F
:100CB0004DF816E001200790D9F8000050F8041B09
:100CC000C9F800008DF848100BE001212522BBF186
:100CD000000F07918DF8482003D0022207928DF86B
:100CE00049B00F9D07990A986D1A08992D1A0B980B
:100CF0006D1A09992D1A0C986D1A9DF840102D1A2D
:100D000048073FF5DFAA2021002D8DF800107FF75E
:100D1000D9AA309E2C46FFF7C9BA4FF0FF3031B048
:100D2000BDE8F08FCBCCCC0C686A6C747A4C0000B8
:100D30007072696E74665F733A2062616420257315
:100D400020617267756D656E740000002DE9FC47C7
:100D500007468A463C6950466F2808BF082505D0DB
:100D6000FFF78EF9782814BF0A251025D7E900016E
:100D70003C2680468946BAF1640F18BFBAF1690F64
:100D800005D1002903D5D8F1000869EB4909B9F16B
:100D9000000F08BFB8F1000F0CD1386B50B9082D07
:100DA0003AD197F83800010736D530223B2684F82F
:100DB0003B2031E08DF800A0404649462A46EB171B
:100DC00000F0E6FA3032D0B2761E3A2801960EDAFA
:100DD000A255404649462A46EB1700F0D9FA80460C
:100DE0005FEA010908BFB8F1000F05D108E09DF8DE
:100DF00000001218513AEBE7F868A1198842DBD3DA
:100E0000082D09D197F83800010705D5A05D3028D5
:100E100002D0761E3020A055C6F13C03BB61A1195B
:100E2000F960386B834208DAC31A3B624FF6EF7001
:100E3000398F01403987BDE8F38700280ED597F830
:100E4000380000F01400102808D17A6B7969386AEC
:100E5000521A121AD21A002AC8BF3A62BDE8F387A2
:100E60002DE9D04306460F4614464FF00008DFF840
:100E7000449012E0E00707D542464B4630463946DB
:100E800000F07CFA06460F464046494642464B462D
:100E900000F074FA641080468946002CEAD130468E
:100EA0003946BDE8D0830000A08601000000F03F75
:100EB00084D7974100002440F8B505460E461746F2
:100EC0001C4600205CB117F8011BB068A847B06051
:100ED00030B1F06A401CF0620020641EF3D1F2BD14
:100EE0004FF0FF30F2BD00007072696E74665F7380
:100EF0003A20256E20646973616C6C6F77656400BD
:100F00007072696E74663A2062616420256E206199
:100F10007267756D656E7400000000006E616E0092
:100F20004E414E00696E6600494E46003000F0B4F6
:100F30000246106895681318506803EB5004C00708
:100F400048BF4D44A3422DD013F8016B16F00300A7
:100F500004BF13F8010BC01C31090F2907D113F886
:100F6000011B0F3103E013F8017B05F8017B401EE4
:100F7000F9D10029E6D013F8010BC6F38106032E40
:100F800008BF13F8016B00EB0620404228440026FE
:100F9000B71E8F421EBF10F8017B05F8017B761C3F
:100FA000F6D1CFE7F0BC02F10C007047C9B202786D
:100FB0008A421AB11CBF10F8012FF9E718BF0020B0
:100FC00070470268531C03601170704780B500B908
:100FD00006A005490B681BB122220021984701E0B9
:100FE00000F0EEFA222002BD900B0228636F6E73B0
:100FF000747261696E742068616E646C65723A2007
:10100000626164206D6573736167650000F10103BF
:10101000810704D010F8011B820781B1FAD1026860
:10102000A2F10131914311F0803104BF50F8042F37
:10103000F6E709BAB1FA81F100EBD100401CC01A01
:1010400070470000C9B2830706D0521E22D310F8A1
:10105000013B9942F7D11FE0083A13D302F1040291
:1010600041EA012141EA014150F8043B121F21BF2E
:101070004B40A3F1013C2CEA030C1CF0803FF3D061
:10108000C9B2001F083210F8013B521E28BF91EA76
:10109000030FF8D818BF0120401E704762B38B07BA
:1010A00008D0521E11F8013B00F8013B00F02480EB
:1010B0008B07F6D1830740F0208000BF103A07D39A
:1010C00030B4B1E83810103AA0E83810F9D230BC8A
:1010D000530724BFB1E80810A0E8081044BF51F836
:1010E000043B40F8043BD20724BF31F8022B20F820
:1010F000022B44BF0B7803707047121F17D35B009D
:1011000009D151F8043B20F8023B1B0C121F20F8B8
:10111000023BF6D20BE051F8043B00F8013B1B0AFE
:1011200020F8023B1B0C121F00F8013BF3D238BF22
:10113000121D521E24BF11F8013B00F8013BF8D8E4
:101140007047000010B5144600F002F8226010BD90
:10115000C1F30A5343B14A0012F5001F28D2A3F28B
:10116000FE32A1EB0251704750EA410C20D001F051
:10117000004C31EA0C01B1FA81F204BFB0FA80F3FD
:10118000D2180B3AB2F120032CBF00FA03F19140C0
:1011900041EA0C013EBFC2F1200C20FA0CF31943C6
:1011A0009040524240F2FD33D21A01EB0351704796
:1011B0000022704741EA030C50EA4C0C52EA0C0C36
:1011C0004FF4001C09D307D01CEB410F9CBF1CEB54
:1011D000430F8B4208BF824270471CEB430FFBD882
:1011E000994208BF9042704741EA030C50EA4C0C08
:1011F00052EA0C0C4FF4001C09D307D01CEB410F32
:101200009CBF1CEB430F994208BF904270471CEBF8
:10121000410FFBD88B4208BF8242704700B541ECBA
:10122000100B104600F004F851EC100B00BD00BF8D
:10123000020030EE101B40F2FF7C37D41CEA115341
:1012400013D063456BD09B18634504D201EB025168
:1012500020EE101B704701F0004141EA0C510020C4
:1012600041EC100BAFF30080704710EE100B50EA0A
:10127000410054D0B2F57F7F08D202EB5C01090532
:10128000002041EC110B20EE010B70474FF0FE41A6
:10129000002341EC113B20EE010BB2F57E7230EEE3
:1012A000101B4FEA410342EB5353CDE752421CEA75
:1012B000115316D0634532D09A4204D2A1EB0251A9
:1012C00020EE101B70475B1ED21AA1EB035120EEDB
:1012D000101B372A0CD3002001F0004141EC100B09
:1012E000C0E710EE100B50EA410018D0372AF2D2B6
:1012F000C2EB5C021105002041EC110BF1EE100A6B
:1013000020F01F0121F4F851E1EE101A20EE010B3C
:10131000F1EE101AE1EE100A11F0080FA2D1704799
:1013200041EC100BBDEEC00B10EE100A704700EE42
:10133000100AB8EEC00B51EC100B704741EC100BCB
:1013400043EC112B30EE410B51EC100B704741EC8C
:10135000100B43EC112B80EE010B51EC100B70477E
:1013600041EC100BBCEEC00B10EE100A704700EE03
:10137000100AB8EE400B51EC100B704741EC100B0B
:1013800043EC112B20EE010B51EC100B70470000C9
:10139000BBBBE1B1B2F5803F80F07E80022A1ED94E
:1013A0008C46B1FBF2F102FB11C31B0443EA10436C
:1013B000B3FBF2FC02FB1C3380B240EA0343B3FBF5
:1013C000F2F002FB103240EA0C4000237047022A80
:1013D00005D98446B0FBF2F002FB10C270474AB157
:1013E00005D100F0010249085FEA30007047002291
:1013F0000023704700F0E8B80B0002000021002035
:101400007047904271EB030CF6D3B3F5803F2FD2B7
:10141000F0B5B3FA83F7B1FA81F4A7F10F0E3D1BD3
:101420005340CEF1200602FA0EF2F3415340B5F1DB
:101430000F0746D80F3C2C444140C4F12006A04081
:10144000F1414140B1FBF3F603FB1611A2FB064547
:10145000001BA94102D2761E8018594180EA010280
:1014600021FA0EF362FA0EF200215A403046F0BD26
:1014700030B4B1FBF3FC03FB1C11A2FB0C45001BB9
:10148000A94103D2ACF1010C8018594130BC02468D
:101490000B46604600217047B2F1807F65D3F0B5FE
:1014A000B2FA82F7B1FA81F4C7F10F063D1B22FAB6
:1014B00006F307F1110EF24120355A40B5F10F073E
:1014C000B8D94140C4F12006A040F1414140B1FBF0
:1014D000F3FC03FB1C11A2FB0C45001BA94103D22A
:1014E000BCF1010C801859410F2F12D30F3FC903D3
:1014F00041EA5041B1FBF3F603FB1611A2FB06458E
:10150000D4EBC030A94102D2761E8018594146EA78
:10151000CC3C07B34140C7F12006B840F1414140FF
:10152000B1FBF3F603FB1611A2FB0645001BA94114
:1015300002D2761E8018594180EA010221FA0EF388
:10154000C7F1200462FA0EF20CFA07F05A402CFAA6
:1015500004F13043F0BD80EA010221FA0EF30021CC
:1015600062FA0EF260465A40F0BD8C46B1FBF2F1D1
:1015700002FB11C31B0243EA1063B3FBF2FC02FB44
:101580001C331B024CEA002043EA1063B3FBF2FC5D
:1015900002FB1C331B024CEA002043EA1063B3FB3E
:1015A000F2FC02FB1C331B024CEA002043EA1063EE
:1015B000B3FBF2FC02FB1C324CEA00200023704714
:1015C000012000F003B800007047000080B5AFF3C1
:1015D0000080024A11001820ABBEFBE72600020083
:1015E000022801D3012010E00B00DBB2042B01DB49
:1015F00001200AE0DFF8D83803EB8000C9B2405C74
:10160000824201D3012000E000207047F8B50400B9
:101610000F0015001E00022C01D301202AE02A0031
:101620003900C9B22000FFF7DBFF012801D10120FA
:1016300020E006983900C9B202291ED1B6F5803FD4
:1016400019D2202817D24FF4C052DFF8881863034C
:101650000B4403EB850313441F6866F317271F60D1
:101660006403214401EB850111440A6860F3C70259
:101670000A600020F2BD0120FCE7FFB2032F1FD15A
:10168000B6F1807F1AD2202818D24FF4E052DFF84A
:10169000441863030B4403EB850313441F6807F0EE
:1016A000FF0757EA06271F606403214401EB850109
:1016B00011440A6860F3C7020A60DAE70120D9E73B
:1016C0000120D7E700B20012C0B27047F8B505009C
:1016D0000E001700280000B2FFF7F4FF04002000FE
:1016E000C0B2022801D3012024E03A003100C9B27F
:1016F0002000C0B2FFF774FF012801D1012019E0DA
:10170000DFF8D0172000C0B2400308442A00D2B24C
:1017100000EB8200D0F8000CF6B266F3092067F304
:101720000700E4B264032144EDB201EB8501C1F886
:10173000000C0020F2BD70B504000D001600022C54
:1017400001D301201DE032002900C9B22000FFF7BB
:1017500047FF012801D1012013E0DFF8781760036B
:10176000085850F0004050F0407050F47F00EDB247
:1017700065F3092066F30700620388506403085983
:10178000002070BDD0F840037047D0F80803C005B2
:10179000C00D7047C0F840127047D0F80802C0056D
:1017A000C00D7047D0F80802C0F3C030704738B59C
:1017B00005002800FFF7F1FF04002800FFF7F2FF03
:1017C0000419002C01D1012000E00020C0B232BD7C
:1017D000C0F8C81F7047D0F8C80F7047C0F8C01FC6
:1017E000D0F8C00F7047C0F8881F7047D0F8880F36
:1017F0007047C0F8801FD0F8800F7047016851F023
:1018000000410160704770B506000124DFF8C8563A
:101810003000C0B255F82000FFF7DDFF40071FD5AC
:101820003000C0B255F82000FFF7AFFF002810D0FD
:101830003000C0B255F82000FFF7A4FFDFF89C1677
:101840003200D2B288540120DFF894163200D2B2AE
:1018500088540421F6B255F82600FFF7BFFF0FE0C9
:101860003000C0B255F82000FFF7C0FF800507D553
:101870004FF40071F6B255F82600FFF7BAFF0024C6
:101880002000C0B270BD38B504001500C9B20029EF
:101890000BD0022923D015D304293AD02CD3062902
:1018A00051D043D307295BD067E0DFF83806A0604A
:1018B00001202073112060734FF48C70E08112209E
:1018C000208260E0DFF82006A06001202073112054
:1018D000607340F21D10E0816B20208253E0DFF83E
:1018E0000C06A06001202073112060734FF48E70ED
:1018F000E0816A20208246E0DFF8F405A060022043
:1019000020731120607340F21B10E0816920208257
:1019100039E0DFF8E005A06001202073112060733A
:1019200040F21B10E081692020822CE0DFF8C8051E
:10193000A06001202073132060734FF48D70E0814C
:10194000682020821FE0DFF8B405A060012020732A
:101950001120607340F21F10E0816D20208212E0A0
:10196000DFF89C05A06001202073112060734FF404
:101970008F70E0816C20208205E0BA22DFF88415A8
:10198000002000F056FCEDB2002D0BD0022D23D02C
:1019900015D3042D3AD02CD3062D51D043D3072D87
:1019A0005BD067E0DFF83C0520600020207111204B
:1019B00060714FF48C70E0811220208260E0DFF8CB
:1019C00028052060002020711120607140F21D1058
:1019D000E0816B20208253E0DFF8100520600020BA
:1019E0002071112060714FF48E70E0816A20208296
:1019F00046E0DFF8FC0420600120207111206071B6
:101A000040F21B10E0816920208239E0DFF8E40415
:101A10002060002020711120607140F21B10E081D5
:101A2000692020822CE0DFF8D004206000202071A3
:101A3000132060714FF48D70E081682020821FE0D8
:101A4000DFF8B8042060002020711120607140F29E
:101A50001F10E0816D20208212E0DFF8A4042060D6
:101A600000202071112060714FF48F70E0816C2094
:101A7000208205E0FE22DFF88C14002000F0D9FB64
:101A800031BD38B50400DFF85054C9B22000C0B2EF
:101A900055F82000FFF77EFE2000C0B255F8200068
:101AA000FFF785FE0028F7D031BD38B504000D00E2
:101AB00005E029782000C0B2FFF7E3FF6D1C28780D
:101AC0000028F6D131BD10B40022DFF81434020032
:101AD000D2B29A5C002A0AD0DFF800240400E4B2F3
:101AE000125D0A700021C0B21954012000E00020EC
:101AF000C0B210BC704770B505000C00DFF8D863A9
:101B00002800C0B256F82000FFF770FE40084000E1
:101B100001002800C0B256F82000FFF764FE28003C
:101B2000C0B256F82000FFF761FE30F0020001005D
:101B30002800C0B256F82000FFF755FE2800C0B2BA
:101B400056F82000FFF752FE30F020000100280078
:101B5000C0B256F82000FFF746FE2800C0B256F883
:101B60002000FFF743FE30F0400001002800C0B223
:101B700056F82000FFF737FE2800C0B256F82000C4
:101B8000FFF734FE30F0100001002800C0B256F814
:101B90002000FFF728FE2800C0B256F82000FFF70B
:101BA00025FE30F4807001002800C0B256F82000F5
:101BB000FFF719FE2800C0B256F82000FFF716FE06
:101BC00030F4806001002800C0B256F82000FFF712
:101BD0000AFE002C0ED02800C0B256F82000FFF7F5
:101BE000FAFD50F400700100EDB256F82500FFF741
:101BF000FAFD0DE02800C0B256F82000FFF7EBFD1B
:101C000030F400700100EDB256F82500FFF7EBFD4F
:101C100070BD70B505000C00DFF8BC622800C0B2D2
:101C200056F82000FFF7D7FD4008400001002800CB
:101C3000C0B256F82000FFF7CBFD2800C0B256F81E
:101C40002000FFF7C8FD30F0080001002800C0B2F6
:101C500056F82000FFF7BCFD2800C0B256F820005F
:101C6000FFF7B9FD30F0200001002800C0B256F89F
:101C70002000FFF7ADFD2800C0B256F82000FFF7A6
:101C8000AAFD30F4807001002800C0B256F8200090
:101C9000FFF79EFD2800C0B256F82000FFF79BFD1D
:101CA00030F4007001002800C0B256F82000FFF7A1
:101CB0008FFD2800C0B256F82000FFF78CFD30F4ED
:101CC000006001002800C0B256F82000FFF780FD38
:101CD000002C0ED02800C0B256F82000FFF77BFD84
:101CE00050F004000100EDB256F82500FFF770FD3A
:101CF0000DE02800C0B256F82000FFF76CFD30F070
:101D000004000100EDB256F82500FFF761FD70BD3B
:101D10002DE9F0412DED028BA8B005000E00170053
:101D200028003900C0B2C9B2884201D1012000E0C8
:101D300000201C00DFF8CC814FF4FB724146C0B29A
:101D400000F077FA28002100C0B2C9B2884201D160
:101D5000012000E0002040F2F7124146C0B200F03E
:101D600068FA02A8142100F0E5FA342100220DF1EE
:101D70006808404600F0E2FA4C2100220DF11C08F0
:101D8000404600F0DBFA082080B206FB00F65E4811
:101D9000B0FBF6F85C4806FB180000EE100AB8EE3F
:101DA000400B01EE106AB8EE411B80EE010BBFEE56
:101DB000ED0B10EE100B08EE100A2200D2B2390023
:101DC000C9B202A8FFF75FFD08201B909DF80D0027
:101DD0008DF870001AAA9DF80C10029800F06DFBA7
:101DE00006201B909DF815008DF870001AAA9DF82A
:101DF0001410049800F061FB002007900820089060
:101E00000820099002200B9000200C9000201290D6
:101E100000201490304C2800C0B254F8200000F08C
:101E2000CDFC3A492A00D2B2382042430A4407A9DD
:101E30002800C0B254F8200000F07EFB2800C0B299
:101E400054F82000FFF7DAFC2A00D2B20321BDF9D2
:101E50001600FFF73BFCBDF91600FFF733FC8DEDD4
:101E6000008AB8F1010843462A00D2B20321C0B269
:101E7000FFF7CCFBBDF91600FFF724FC2A00D2B215
:101E80000321C0B2FFF757FCBDF91800ADF8000000
:101E90000320ADF8020001208DF8040007221C4841
:101EA0002900C9B250F82110684600F025FD002134
:101EB0002800C0B2FFF7ADFE00212800C0B2FFF736
:101EC0001AFE28B0BDEC028BBDE8F08100000000D6
:101ED000444808100000044014070228600B022840
:101EE000680B0228000031400002314000053140FB
:101EF0008008314080063140000731400001314008
:101F000080013140AC45081000B4C40434070228F5
:101F1000F806022882B000200190002000900020E6
:101F2000019009E00098401C00900098B0F5005F17
:101F3000F8D30198401C01900198B0F5805F02D25F
:101F400000200090F1E702B0704780B5010000204A
:101F5000FFF7ABFD01BD2DE9F043ADF5137D0700A3
:101F6000884616001C000020ADF802000020ADF8E5
:101F70000000002002900020ADF804000020ADF821
:101F800006004046FFF742F80290DFF870532888B9
:101F9000002801D028698047DFF864030078002812
:101FA00000F033812888002800F01181BDF9060077
:101FB000411CADF806103A00010089B20020EB6820
:101FC000984747464046FFF721F802906888A9796C
:101FD00090FBF1F0ADF804003800471C00780028B1
:101FE000FAD10020ADF800000EE07F1E38782F28CF
:101FF00002D038785C2804D1BDF80000401CADF850
:1020000000000298401E0290BDF80000022802DA8B
:1020100002980028E9D50298002806D47A1CDFF837
:10202000E41253A800F084FC0EE0BDF80000002884
:1020300005D13A00B44953A800F07AFC04E03A0014
:10204000B04953A800F074FC0020ADF8020042E053
:10205000BDF80010BDF80020BDF8023053AF9BB2B0
:10206000BDF90400434313FA82F0385C43AA89B2F5
:102070005054BDF80000401CADF80000BDF8000051
:1020800080B2BDF9041088420EDA53A8FEF7BEFFF5
:10209000BDF80020BDF802309BB2BDF904104B43DF
:1020A00013FA82F18842D3D2002043A9BDF8002060
:1020B0008854BDF90600411CADF8061043AAE97921
:1020C00011FB00F189B20020EB689847BDF80200CF
:1020D000401CADF80200BDF8027053A8FEF796FF51
:1020E000BDF90410B0FBF1F0401CBFB2874203D22F
:1020F0000020ADF80000C1E73200844953A800F089
:1021000017FCBDF90600411CADF8061053AAE97989
:1021100011FB00F189B20020EB689847002C74D0C5
:102120000020ADF8020041E0BDF80010BDF800202D
:10213000BDF802309BB2BDF90400434313FA82F0AC
:10214000205C43AA89B25054BDF80000401CADF891
:102150000000BDF8000080B2BDF9041088420EDA1C
:102160002000FEF753FFBDF80020BDF802309BB2FF
:10217000BDF904104B4313FA82F18842D4D20020F7
:1021800043A9BDF800208854BDF90600411CADF8F4
:10219000061043AAE97911FB00F189B20020EB682F
:1021A0009847BDF80200401CADF80200BDF802607F
:1021B0002000FEF72BFFBDF90410B0FBF1F0401C2E
:1021C000B6B2864221D20020ADF80000C1E74FF43C
:1021D000807100220DF10C09484600F0AFF838007C
:1021E000A9688847002C07D000943300424648492C
:1021F00003A800F09DFB05E033004246454903A8D3
:1022000000F096FB03A8A96888470DF5137DBDE88B
:10221000F08310B53A480078002809D03F4C2100DF
:102220000020FFF750FC012221003B4800F005FC94
:1022300010BD38B50C001500C0B2002803D13848D5
:102240000078002800D131BD36490878002800D038
:10225000FEE70878401C087000F042FB00232A00CB
:1022600021003148FFF777FEFFF754FEF6E7002123
:1022700001804FF6FF7141808180FF218171C17122
:10228000002181600021C1600021016170471B496C
:1022900002880A8042884A8082888A8082798A718C
:1022A000C279CA7182688A60C268CA6000690861BE
:1022B000012013490870704700B585B06846FFF7E4
:1022C000D6FF1A4802906846FFF7E1FF05B000BD4F
:1022D00080B5FFF7F1FF002300225FF4E131002019
:1022E000FFF716FD4023124A00210B4800F045FD80
:1022F00001210020FFF78DFC01BD00004C0B0228DE
:10230000950B022820480810004808102C48081097
:1023100064470810E84708101C0B0228960B022897
:1023200032070228970B0228104808104B1F08108C
:10233000AC0A0228002200F03FBD000062F30F2229
:1023400062F31F42401810F0030308D0C91A1FD3CC
:10235000DB0748BF00F8012D28BF20F8022D13002D
:1023600030B414461546103928BF20E93C00FAD88D
:10237000490728BF20E90C0048BF40F8042D890018
:1023800028BF20F8022D48BF00F8012D30BC70474F
:10239000C91818BF00F8012DCB0728BF00F8012D80
:1023A0007047000030B4614B1818C009604C14EB42
:1023B000001404290DD223681F25C8008540AB43B3
:1023C000D2B212F01F02C90012FA01F119432160C2
:1023D0000CE0091F63681F25C8008540AB43D2B2DB
:1023E00012F01F02C9008A401A43626030BC704775
:1023F000002A04D1012212FA01F1416003E0012216
:1024000012FA01F18160704710B48900436C0F2407
:102410008C40A34312F00F0212FA01F119434164F8
:1024200010BC704710B4836C01248C40A34312F09D
:10243000010212FA01F11943816410BC704710B413
:10244000C36C01248C40A34312F0010212FA01F183
:102450001943C16410BC704710B449001031C36CFB
:1024600003248C40A34312F0030212FA01F1194332
:10247000C16410BC70474269012212FA01F1416146
:102480004069704710B4836901248C40A34312F063
:10249000010212FA01F11943816110BC704710B4B6
:1024A0004900036C03248C40A34312F0030212FA88
:1024B00001F11943016410BC7047F8B505000E0026
:1024C00014000027002D2ED0002C2CD022683100C3
:1024D0002800FFF78DFF227A31002800FFF762FF06
:1024E000626931002800FFF79DFFA26931002800D2
:1024F000FFF7A5FFE26931002800FFF7ADFF626832
:1025000031002800FFF780FFE26831002800FFF764
:10251000C6FF31002800FFF7AEFF22693100280016
:10252000FFF7B0FF00E0034F3800F2BD0000CFBF5F
:102530000000304001005A002DE9F44FDFF8D822A6
:10254000DFF8D8321B68DFF8D8422468DFF8D452AD
:102550002D68DFF8D4623668DFF8D0723F68DFF8A4
:10256000D0C2DCF800C0DFF8CCE2DEF800E0DFF833
:10257000C882D8F80080DFF8C492D9F80090DFF85C
:10258000C0A2DAF800A0002800F01581002900F0B0
:1025900012810A68022A06D191F82620002A02D167
:1025A0005FF0000B03E0D1F804B0BBF1010B91F830
:1025B0002420002A01D0012200E0002262F310430F
:1025C00033F440436BF30303022262F319630360A5
:1025D0000A7812F0030262F31964046491F825206A
:1025E000002A01D0012200E0002262F38615CA7E93
:1025F000002A01D0012200E0002262F38A254A7EEF
:10260000002A01D0012200E0002262F308258A7E20
:10261000002A01D0012200E0002262F349258A6BE2
:10262000521E12F00F0262F313450A69521E12F095
:102630000702ED08ED0015434A6962F304154A6983
:10264000520862F3451585640A7B002A01D00122F5
:1026500000E0002262F308260A7E002A01D001224F
:1026600000E0002262F349268A68521E12F01F021F
:10267000760976011643C0F800630A7F02F0FF0274
:102680003F0A3F02174391F8202002F0FF0262F355
:102690001747C0F8107391F82720002A01D00122B3
:1026A00000E0002262F3082C0A69521E12F00702B1
:1026B0005FEADC0C5FEACC0C52EA0C0C4A6962F36C
:1026C000041C4A69520862F3451CC0F844C00A7BE6
:1026D000002A01D0012200E0002262F3082E8A685D
:1026E000521E12F01F025FEA5E1E5FEA4E1E52EAA1
:1026F0000E0E0A68012A01D1012200E0002262F3D5
:10270000104EC0F800E291F83C2002F0FF025FEAB0
:1027100018285FEA082852EA0808C0F8048391F8EC
:102720002820002A01D0012200E0002262F359692A
:10273000CA6A012A01D1012200E0002262F318696D
:102740004A6B012A01D1012300E00023009A63F3C0
:10275000104991F8303003F0FF035FEA19295FEA6E
:10276000092953EA0909C0F8509091F8443003F060
:10277000FF035FEA1A2A5FEA0A2A53EA0A0AC0F844
:1027800004A28B6CC0F8883F096CC0F8C81F002AEF
:1027900010D00020506000201060002090600020C9
:1027A000D060002010620020D06200201063DFF8AB
:1027B0009400506300221000BDE8F28FDFF888100B
:1027C00001605FF4401101640021816440F207114F
:1027D000C0F800130022C0F804230022C0F8102320
:1027E00000224264C0F800120021C0F80412002147
:1027F00001650021C0F8C81E0021C0F8881E002114
:10280000C0F8C81F0021C0F8881F0021C0F8081FA9
:102810000021C0F8481F70470160AA006C480810EA
:102820007048081074480810784808107C48081050
:102830008048081084480810884808108C48081000
:1028400090480810EFCDAB000F000003010009B263
:10285000002908D4012210F01F018A401B4900B250
:10286000400941F820207047010009B2002908D42E
:10287000012210F01F018A40154900B2400941F8B9
:1028800020207047020012B2002A04D44901114AE4
:1028900000B2115407E049010F4A00B210F00F00D6
:1028A000104400F8041C7047002800D162B60B48A1
:1028B0000168491C0160704772B608490868002821
:1028C00002D00868401E08600868704700E100E018
:1028D00080E200E000E400E018ED00E08C0B02284C
:1028E00080B5FFF7E9FF00F081FA01BD80B5C9B2FC
:1028F00000B2FFF7C7FF01BD70B504000D00160060
:10290000200000F083FA2900B4F9000000F0BDFABD
:102910003100C9B2B4F90200FFF7E8FFB4F90200D0
:10292000FFF7A2FFB4F90200FFF790FF70BD0000AF
:102930000CB430B583B00A4606A9029104460025BE
:102940000194009502AB01A9084878441E30FDF7B8
:102950009AFB019A157000284EBF04460198041B8B
:10296000204603B030BC5DF80CFB00BF57E6FFFF0C
:1029700082688918816003E082684169521A826026
:10298000816842699142F7D27047C2688918C16074
:1029900003E0C2684169521AC260C168426991424B
:1029A000F7D2704770B50400002C01D0012000E080
:1029B00000205422DFF8FC13C0B2FFF73AFC0025D8
:1029C000207850F0010020700020A0600020E0601E
:1029D000606920616078002803D0022810D007D3F6
:1029E00015E06169002266683000FFF7A7FC0EE081
:1029F00061694900002266683000FFF79FFC06E02D
:102A000061698900002266683000FFF797FC0020AA
:102A100020702800C0B270BD10B50400002C01D099
:102A2000012000E000207022DFF88813C0B2FFF719
:102A300000FC60692169401A10BD2DE9F8430500CA
:102A40001600002D01D0012000E000200C00AA2279
:102A5000DFF86013C0B2FFF7ECFB00270020002C6A
:102A600001D10327B5E0287810F0050F01D0042725
:102A7000AFE0287850F0040028702869B042C0F018
:102A8000A380D5F81480A868B8EB0008B04567D2D9
:102A90006878002803D0022841D01FD390E0424636
:102AA00021006868AB6800EB03094846FEF7F6FAB8
:102AB00041462800FFF75CFFB6EB080204EB080173
:102AC0006868AB6800EB03042000FEF7E7FAB6EB9A
:102AD000080841462800FFF74BFF71E05FEA480213
:102AE00021006868AB6800EB43094846FEF7D6FA58
:102AF00041462800FFF73CFFB6EB0802520004EB0A
:102B000048016868AB6800EB43042000FEF7C6FA92
:102B1000B6EB080841462800FFF72AFF50E05FEABD
:102B2000880221006868AB6800EB83094846FEF71D
:102B3000B5FA41462800FFF71BFFB6EB08029200EA
:102B400004EB88016868AB6800EB83042000FEF7A3
:102B5000A5FAB6EB080841462800FFF709FF2FE069
:102B60006878002803D002281DD00ED328E0320058
:102B700021006868AB6800EB03042000FEF78EFAC2
:102B800031002800FFF7F4FE1AE0720021006868A7
:102B9000AB6800EB43042000FEF780FA3100280008
:102BA000FFF7E6FE0CE0B20021006868AB6800EBBE
:102BB00083042000FEF772FA31002800FFF7D8FEE8
:102BC0002869861B2E6100E00527287810F0FB009D
:102BD00028703800C0B2BDE8F2832DE9F047050047
:102BE0000E001F00002D01D0012000E00020140085
:102BF000DFF8C08140F25B124146C0B2FFF719FB1B
:102C0000002C01D0012000E000204FF4AE724146BC
:102C1000C0B2FFF70EFB5FF0000800200020002E7E
:102C200002D15FF003088BE0297811F0030F03D085
:102C300020605FF006089CE02800FFF7EDFE2168A9
:102C4000884209D220605FF00708002804D1287864
:102C500010F0F70028708CE0287850F008002870F9
:102C6000D5F81490E868B9EB00092068814522D3B3
:102C70006878002803D0022813D008D35CE02268CB
:102C80006868E96801443000FEF708FA54E02268F9
:102C900052006868E96800EB41013000FEF7FEF978
:102CA0004AE0226892006868E96800EB8101300020
:102CB000FEF7F4F940E06878002803D0022827D016
:102CC00011D339E04A466868E9680144B246504683
:102CD000FEF7E4F92268B2EB090269684E4430005D
:102CE000FEF7DCF928E05FEA49026868E96800EB72
:102CF0004101B2465046FEF7D1F92268B2EB090213
:102D00005200696806EB49063000FEF7C7F913E088
:102D10005FEA89026868E96800EB8101B2465046C3
:102D2000FEF7BCF92268B2EB09029200696806EB73
:102D300089063000FEF7B2F9287810F0F700287005
:102D4000FFB2002F15D128780B2802D15FF00208BE
:102D50000FE0287850F00200287021682800FFF763
:102D600014FE2969206841182961287810F0FD00B7
:102D700028704046C0B2BDE8F087F8B504000E00E8
:102D800017001D00002C01D0012000E000204FF4AE
:102D900007720849C0B2FFF74CFA002067600021B3
:102DA000217066700021A1600021E16025616561EC
:102DB000C0B2F2BD4445081000B500BF13009646EE
:102DC0009446103928BFA0E80C50FAD85FEA417C3D
:102DD00028BF0CC048BF40F8042BC90728BF20F803
:102DE000022B48BF00F8012B00BD0000002007E0C7
:102DF0000549C2018A5822F00042C301CA50401C52
:102E00003F28F5DB704700000000584030B4002137
:102E1000234A1368234A1468002832D0224A1568CE
:102E2000C5F303250E2D0FD01268C2F303220D2A1D
:102E300028D1827812F00F02240924011443027968
:102E4000002A15D0012214E0827812F00F021B092B
:102E50001B0113430279002A01D0012200E0002265
:102E600062F3DF73114AB0F9000042F8203009E044
:102E7000002262F3DF740E4AB0F9000042F82040ED
:102E800000E00649080030BC70470A4B1A68002A67
:102E900003D01A6800B242F82010704701005600B3
:102EA00094480810984808100000204000A02040D6
:102EB00000C02040EC060228DFF8C4110868C0F307
:102EC0004000002801D0022002E0086810F0010054
:102ED0007047DFF8B001006810F001007047000093
:102EE000C21E022A01D3012002E0C01E0860002099
:102EF00070471CB5FF246946FFF7F2FFC0B20028F7
:102F000002D02000C0B207E0DFF8FC01009950F8C1
:102F1000210010F00100C0B216BD0000002801D051
:102F2000032801D3012002E0401E08600020704702
:102F30001CB5FF246946FFF7F1FFC0B2002802D09C
:102F40002000C0B208E0DFF8C4010099090108447C
:102F5000C06810F00100C0B216BD0000DFF8BC016F
:102F60000068800810F00100704738B504002000A8
:102F7000C0B2082811D3DFF898511822DFF8941155
:102F8000280000F00DFC0020E87540F65B00DFF83B
:102F900088110860002000F03BFCDFF8CC11200015
:102FA000C0B251F82000C0F30020002805D0E4B2E0
:102FB00051F8240010F00F0000E0FF2032BD38B5BA
:102FC00004002000C0B2082811D3DFF844511822B1
:102FD000DFF84011280000F0E3FB0020E8754FF413
:102FE0000960DFF834110860002000F011FCDFF800
:102FF0007801E4B250F82400C0F30110C0B232BD31
:10300000DFF868211368C3F3072303601068C0F377
:10301000C40008607047DFF858211368C3F3072322
:1030200003601068C0F3C4000860704738B504003E
:10303000072C11D3DFF8D8501822DFF8C41128006C
:1030400000F0AEFB0020E8754FF4CE70DFF8C8103A
:103050000860002000F0DCFBDFF8A00150F824003D
:1030600010F00700010009B2042907D1DFF8880138
:1030700050F8240010F01F0050F4807000B232BDF0
:103080002415264040152640DFF8B01209688A034F
:10309000920B0260090E11F00101C171DFF8A0125C
:1030A00009680A00D204D20C82800A00120C02F0D5
:1030B000FF020281090C01F0FF014181DFF8441198
:1030C000096811F00F0202730A00C2F3031242737F
:1030D0000A00120AD204D20CC281090F11F00301B6
:1030E0000174DFF8641309680A00120A12F007027B
:1030F00082710A00120CD205D20D4282890F11F0A2
:103100000101017570470000401626400019264055
:10311000040B0228E0430810700B0228100027401F
:103120001CB50C006946FFF7DBFE0100C9B200299F
:1031300001D0C0B217E0DFF8B404009950F82100C4
:1031400010F07F012160C0F304216160C0F30441ED
:10315000A1600100090F11F003016173C00E10F0AE
:1031600001002073002016BD4012264008002040B8
:10317000080420401CB50C006946FFF7CFFE010093
:10318000C9B2002901D0C0B235E0DFF810150098AF
:103190000001085800F0FF022260C0F304226260C0
:1031A000C0F30442A260000F10F0030020730098E7
:1031B0000001084442681000C00F6073C2F302703F
:1031C000002801D0012000E00020A07322F07F42FF
:1031D000226100980001084480680100C90F217530
:1031E0000100090E11F001016175A075000C10F0CD
:1031F0000700E075002016BD0001264000122640A1
:10320000584408103815264080B50100DFF86805DD
:103210001822FDF753FF0120DFF860150870002029
:1032200002BDDFF85C150968C90F002908D0DFF876
:103230004C150978002907D100210160032070474F
:10324000002101600320FAE7DFF82C15096801600E
:103250000020F4E710B50400FFF72EFE002803D18C
:103260000020206003200DE0DFF810050078002822
:1032700005D0DFF8040580682060002002E000200F
:103280002060032010BD0000DFF8F0140978002949
:1032900005D0DFF8E41449680160002002E0002155
:1032A000016003207047DFF8DC140968C90F0029AA
:1032B00008D0DFF8C8140978002907D1002101607F
:1032C00003207047002101600320FAE7DFF8A8140B
:1032D000C96801600020F4E7DFF8AC140968C90F81
:1032E000002908D0DFF894140978002907D10021BB
:1032F000016003207047002101600320FAE7DFF836
:103300007814096901600020F4E710B50400FFF7A4
:1033100025FE002803D10020206003200DE0DFF807
:103320005C040078002805D0DFF84C044069206078
:10333000002002E000202060032010BD3015264050
:103340003415264010B50C00C0B2FFF76FFE002800
:103350000ED0012810D0022812D0B0F5887F13D0EB
:1033600040F21111884213D0B0F58A7F14D017E0D3
:103370002000FFF756FF16E02000FFF785FF12E060
:103380002000FFF767FF0EE02000FFF78CFF0AE048
:103390002000FFF7BAFF06E02000FFF79DFF02E0E4
:1033A00000202060032010BD80B501000020FFF741
:1033B000C9FF02BD80B50322D2B2824203D20020EF
:1033C0000860012003E0401CC0B2FFF7BBFF02BD54
:1033D00018B587B004006846FFF7E6FF0100C9B2E0
:1033E000002903D000212160C0B22BE001A8FFF723
:1033F0004BFE9DF81400022803D1009820600020A5
:1034000020E0DFF888030068C00F002808D0FFF72D
:1034100060FDC0B2002807D100202060032011E029
:103420000098206000200DE0009901984143BDF80C
:103430000800B1FBF0F09DF80B10491CB0FBF1F057
:103440002060002008B010BD3C152640F0B58BB0C0
:1034500005000C0069462800C0B2FFF7ABFF010071
:10346000C9B2002903D000212160C0B2BCE028000D
:10347000C0B202284CD307A92800C0B2401CFFF7F5
:103480004FFEC0B2002811D0DFF804631822DFF825
:103490000413300000F084F90020F07540F663104A
:1034A000DFF8F4120860002000F0B2F94F4829005C
:1034B000C9B200EB810050F8080CC00F002807D0FB
:1034C0009DF82900022807D10098206000208BE099
:1034D00000982060002087E0EDB26D1C2800FFF707
:1034E00008FD0100C9B2002902D0C0B2FF2803D1F3
:1034F00000202060032077E0009907984143089856
:10350000B1FBF0F00999B0FBF1F0206000206BE016
:1035100001A92800C0B2401CFFF72CFEC0B2002851
:1035200011D0DFF86C621822DFF86812300000F06A
:1035300037F90020F07540F67F10DFF85C12086064
:10354000002000F065F955482900C9B2090140582A
:10355000C00F002807D09DF81000022807D100985E
:103560002060002040E00098206000203CE0EDB2A8
:103570006D1C2800FFF7DCFC0100C9B2002902D055
:10358000C0B2FF2803D10020206003202CE09DF86A
:10359000110001281DD1009A0023019E00273F063B
:1035A00047EA162736060598002136184F41A6FB34
:1035B000020106FB031107FB0211029A039BA3FB06
:1035C0000223FDF7E5FE000E40EA0120090E20600F
:1035D00009E00099019841430298B1FBF0F003998A
:1035E000B0FBF1F0206000200BB0F0BD00162640CB
:1035F00010B50323421E0400E4B2002C03D10800DE
:10360000FFF7E6FE0CE01400DBB2E4B2A34204D301
:103610001000C0B2FFF71AFF02E0C0B2FFF792FE3F
:1036200010BD38B505000C002800C0B2FFF79DFCA6
:103630000100C9B2FF2904D12000FFF7F2FDC0B29A
:103640001BE06946C0B2FFF7D3FF0100C9B20029F1
:1036500003D000212160C0B20FE02800C0B2FFF704
:10366000AEFCC0B2002805D002280BD006D3032838
:103670000CD00FE000982060002032BD0098400878
:103680002060F9E7009880082060F5E70098C008FE
:103690002060F1E7002020600320EEE700192640BB
:1036A0001FB5040002A90120FFF7BBFF0100C9B24A
:1036B000002903D000212160C0B21AE0694601A8A8
:1036C000FFF79EFC01980021421C71F1FF335B0162
:1036D00043EAD26352010098002112184B4102982C
:1036E0000021490141EAD0614001FDF751FE20600F
:1036F000002004B010BD1FB5040002A90120FFF78F
:1037000090FF0100C9B2002903D000212160C0B29E
:103710001AE0694601A8FFF77EFC01980021421CCF
:1037200071F1FF335B0143EAD2635201009800213B
:1037300012184B4102980021490141EAD061400131
:10374000FDF726FE2060002004B010BD80B5DFF834
:103750004C100A68C2F303220E2A07D00968C1F38D
:1037600003210D2905D1FFF7C6FF02BDFFF798FF22
:10377000FBE70120F9E70000EC0A0228940B02287D
:1037800018152640081526400C15264030152640F1
:10379000040B022858440810700B02280000204037
:1037A00001B58B071AD1830724D1121F21D351F8F9
:1037B000043BA3F1013C2CEA030C1CF0803C04BF49
:1037C00040F8043BF1E79CFA8CFCBCFA8CF1C1F1A7
:1037D00018018B40CB4040F8043B13E0042A09D386
:1037E00011F8013B521E00F8013B5BB18B07F7D18A
:1037F000D9E7121D5AB111F8013B521E00F8013BE6
:1038000003B1F8D111001CBF0022FEF79BFD01BDE2
:1038100001BEFEE780B5234A23490B6893423ED0A0
:103820000A60224A12684A62214A8A6202684A6031
:1038300042688A608268CA60C2680A6102694A6135
:1038400042698A618269CA61C2690A62F1EE102A1C
:1038500012F0900F23D0174A8A62026ACA62426A43
:103860000A63826A4A63C26A8A63026BCA63426BF2
:103870000A64826B4A64C26B8A64026CCA64426CDA
:103880000A65826C4A65C26C8A65026DCA65426DC2
:103890000A66826D4A66C26D8A66006EC86600F06E
:1038A0000BF801BDFAF9F8F73C0A022828ED00E010
:1038B000A4A3A2A1ABAAA9A8FEE70000022801D3F5
:1038C00001200FE00B00DBB2042B01DB012009E03B
:1038D0007D4B03EB8000C9B2405C824201D30120E2
:1038E00000E000207047F8B506000F0015001C002E
:1038F000022E01D301201CE02A003900C9B2300099
:10390000FFF7DCFF012801D1012012E03800C0B22E
:10391000002811D1B4F5807F0CD26C487603304476
:1039200000EB850010F58050016864F30F21016001
:103930000020F2BD0120FCE7FFB2012F10D1B4F549
:10394000803F0BD261487603304400EB850010F5D0
:10395000A050016864F317210160E9E70120E8E75E
:103960000120E6E700B20012C0B27047F8B50500CA
:103970000E001700280000B2FFF7F4FF040020003B
:10398000C0B2022801D3012023E03A003100C9B2BD
:103990002000C0B2FFF792FF012801D1012018E0FA
:1039A0004A492000C0B2400308442A00D2B200EBCA
:1039B0008200D0F8000CF6B266F3092067F3070026
:1039C000E4B264032144EDB201EB8501C1F8000CBF
:1039D0000020F2BD70B504000D001600022C01D3CA
:1039E00001201CE032002900C9B22000FFF766FF69
:1039F000012801D1012012E034496003085850F039
:103A0000004050F0407050F47F00EDB265F30920A3
:103A100066F307006203885064030859002070BDF4
:103A200038B594B0502100226C462000FEF786FC89
:103A3000294C00220121B4F90000FFF797FFB4F9E7
:103A40000000FFF78FFF092300220121C0B2FFF71A
:103A50004AFFB4F90000FFF785FF00220121C0B240
:103A6000FFF7B8FF5FF0FF30009000208DF80400F2
:103A700000208DF8050000208DF8060000208DF84C
:103A8000080003208DF844000120129001208DF8D9
:103A900007000F4C0F4D69462078C001284400F004
:103AA0001DF82078C001284400F0D8F800212078C3
:103AB000C001284400F0D7F82078C001284400F065
:103AC000D4F815B030BD0000444808100000044090
:103AD00033070228000059403007022810B40122A1
:103AE00091F84C30052B03D291F84D30052B01D3C2
:103AF0001000A7E0002800F0A480002900F0A180B9
:103B0000514A12684B7963F392428B7913F00303A5
:103B100063F311420B7A13F0070363F31A62CB7954
:103B200063F39E720B7D63F3000291F8243063F31C
:103B3000410202600A7910F130031C6862F3070445
:103B40001C604A79012A0BD18A79002A02D100220D
:103B5000826007E08A79012A04D10A68826001E064
:103B600001228260CA6802610A694261CA6982618F
:103B70000A6AC2610A680262344A12680B7E03F064
:103B8000FF03120A12021A4391F8303003F0FF03C8
:103B900063F3174291F8403003F0FF0363F31F62B1
:103BA00091F8483003F0FF0363F30F224264284A80
:103BB000126891F8383003F0FF03120A12021A4318
:103BC00091F8283003F0FF0363F30F228264214A47
:103BD00012688B7D13F00303920892001A4391F848
:103BE000253013F0030363F38B2291F82C3013F08C
:103BF000030363F3051291F8343013F0030363F306
:103C0000092291F83C3013F0030363F3871291F813
:103C1000443013F0030363F38302C2640E4A126854
:103C200091F84C3013F00703D208D2001A4391F8F0
:103C30004D3013F0070363F306124265497D816737
:103C40000022100010BC70479C480810A0480810C3
:103C5000A4480810A8480810AC480810016851F0A2
:103C6000004101607047816070474030016851F049
:103C7000100101607047000038B500F077F900F0DE
:103C800042F800F0C9F871490868800312D4BFF304
:103C90004F8FBFF36F8F00206D4A1060BFF34F8FBF
:103CA000BFF36F8F086850F400300860BFF34F8F88
:103CB000BFF36F8F0868C00324D40020654A1060EA
:103CC000BFF34F8F64480268C2F34E33C2F3C90496
:103CD00043F6E07010EA431050EA84705F4D2860AC
:103CE0002000441E0028F3D11800431E0028EDD107
:103CF000BFF34F8F086850F480300860BFF34F8FD8
:103D0000BFF36F8F31BD70B586B068465449182235
:103D1000FDF7D4F900200AE069460200D2B201EBB7
:103D2000C2014968491C11F0070F0DD1401C010068
:103D3000C9B2032909D269460200D2B211F8321081
:103D400011F0070FE8D0FEE7FEE7464C207810F0B0
:103D5000070F00D0FEE7444D2868401C10F0070F05
:103D600000D0FEE7002622E068463100C9B200EB31
:103D7000C10041683000C0B252F8300000F043F892
:103D800014E000200028EFD02168491E3000C0B2A6
:103D900052F8300000F037F868463100C9B200EB45
:103DA000C10041682868401C00F02DF8761C3000E6
:103DB000C0B2032825D26A463000C0B252F83000A3
:103DC000002813D020683100C9B252F8311088425F
:103DD0000AD368463100C9B200EBC10040682168CF
:103DE000884201D30120CDE70020CBE768463100AF
:103DF000C9B200EBC100406821688842C1D30120EC
:103E0000C0E706B070BD0022002302E0C0E9002335
:103E100008308842FAD3704730B4144880081449F7
:103E2000144A002308E01C00E4B252F824401D00AC
:103E3000EDB241F825405B1C1C000500E4B2EDB278
:103E4000AC42F0D30C48016030BC704714ED00E088
:103E500050EF00E084ED00E080ED00E060EF00E076
:103E6000B84708105C430810604308108000000049
:103E7000000C02280000081008ED00E010B500203A
:103E800042490860BFF34F8F41480168C1F34E3289
:103E9000C1F3C90343F6E07010EA421050EA8370A0
:103EA0003C4C20601800431E0028F3D11000421E35
:103EB0000028EDD1BFF34F8FBFF36F8FBFF34F8F4C
:103EC000BFF36F8F002034490860BFF34F8FBFF3FB
:103ED0006F8F00F001F810BD38B586B068462F49E5
:103EE0001822FDF7EBF86846FFF78EF9C0B20028FC
:103EF0000DD02B4C18222B492000FFF751FC00203D
:103F0000E0754E20284908600020FFF781FC274D0E
:103F10002800FFF71BFCC0B200280DD0204C18224F
:103F200020492000FFF73CFC0020E07550201E498E
:103F300008600020FFF76CFC1D49286808600A68CB
:103F40001C4882181C48B2FBF0F01C4A10601C4848
:103F5000096801F2E7314FF47A72B1FBF2F10160C6
:103F60000068C0031749086007B030BD80B500F095
:103F70002DF815490A6852F470020A60BFF34F8F9A
:103F8000BFF36F8F00F026F801BD000084ED00E064
:103F900080ED00E074EF00E050EF00E0D047081043
:103FA000040B022864430810700B0228740B0228CB
:103FB000780B02283F420F0040420F00800B02287E
:103FC0007C0B0228840B022888ED00E0EFF31080C0
:103FD00072B6704780F3108870470000010009B284
:103FE000002908D4012210F01F018A404F4900B275
:103FF000400941F820207047FEE780B54C48006832
:104000004C4801680800C00F002805D04A488905BF
:10401000890D50F8210080470020FFF7DFFF01BD28
:1040200080B546480068464801680800C00F00286F
:1040300005D041488905890D50F8210080470120AD
:10404000FFF7CCFF01BD80B53E4800683E480168DF
:104050000800C00F002805D037488905890D50F8A1
:10406000210080470220FFF7B9FF01BD80B5374826
:104070000068374801680800C00F002805D02E48A6
:104080008905890D50F8210080470320FFF7A6FF1E
:1040900001BD80B52F4800682F4801680800C00F97
:1040A000002805D024488905890D50F82100804753
:1040B0000420FFF793FF01BD80B528480068284819
:1040C00001680800C00F002805D01B488905890D2C
:1040D00050F8210080470520FFF780FF01BD80B523
:1040E00020480068204801680800C00F002805D05B
:1040F00011488905890D50F8210080470620FFF7F7
:104100006DFF01BD80B519480068194801680800B5
:10411000C00F002805D008488905890D50F82100F6
:1041200080470720FFF75AFF01BD000080E200E052
:104130004C48081000012040000002285048081098
:104140000401204054480810080120405848081035
:104150000C0120405C480810100120406048081005
:1041600014012040644808101801204068480810D5
:104170001C0120401FB50020019040480078002815
:1041800068D004E0012269463D48FEF756FC6946C6
:104190000220FDF798FC0028F4D19DF800000A28C1
:1041A00058D106200190364C012301AA02A9200013
:1041B000FEF713FD032228A10DF10B0000F064F8B7
:1041C000002810D12748017802293DD00121017033
:1041D0002000FEF721FC0190002301AA22492000C3
:1041E000FEF7FBFC30E003221CA10DF10B0000F0F8
:1041F0004BF8002810D11D480178022924D0012154
:1042000001702000FEF708FC0190002301AA184964
:104210002000FEF7E2FC17E0032211A10DF10B00D4
:1042200000F032F800280FD11248017802290BD093
:10423000012101702000FEF7EFFB0190002301AA8D
:104240000D492000FEF7C9FC2000FEF7ABFB012062
:104250000C4908701FBD0000524D43004747410004
:10426000544853009B0B02283C0902289A0B022851
:10427000BC0802289C0B0228BC090228990B0228C2
:10428000340B0228980B02288AB10B7890F800C0F2
:104290009C4506D110F8013B4BB1491C521EF4D18C
:1042A00005E002D24FF0FF30704701207047002038
:1042B0007047000072B61D4908684FEA102000F0F0
:1042C0000F000E2808BF1A490D2808BF19490728F2
:1042D00008BF1949082808BF1849086820F00B00D2
:1042E00008600868BFF34F8F154816490860BFF390
:1042F0004F8F1549086840F00700086013490868A7
:1043000040F007000860BFF34F8FBFF36F8F0020AE
:104310000021124AE2E802016A45FBD10C4FB8477E
:104320000C4FB8470C4FB847FEE700000000204094
:104330000C0020400C0420400C0820400C0C2040B5
:104340000000081008ED00E090EF00E094EF00E0BE
:10435000793C08104D4608109D47081000FF0728BB
:10436000FFFF0728433A5C536F757263657472658B
:10437000655C435954344242375F4C6962726172E2
:10438000795C5365656B667265655F435954344269
:10439000425F4F70656E736F757263655F4C6962E3
:1043A000726172795C6C69627261726965735C7367
:1043B000646B5C747669696268346D5C7372635CAB
:1043C00073797374656D5C73797374656D5F7476FE
:1043D00069696268346D5F636D372E6300000000A9
:1043E000433A5C536F75726365747265655C4359DB
:1043F00054344242375F4C6962726172795C536532
:10440000656B667265655F4359543442425F4F7015
:10441000656E736F757263655F4C69627261727904
:104420005C6C69627261726965735C73646B5C7405
:104430007669696268346D5C7372635C6472697614
:104440006572735C737973636C6B5C63795F7379AA
:1044500073636C6B2E680000433A5C536F75726334
:1044600065747265655C435954344242375F4C69E8
:1044700062726172795C5365656B667265655F43F4
:1044800059543442425F4F70656E736F7572636545
:104490005F4C6962726172795C6C696272617269A7
:1044A00065735C73646B5C747669696268346D5CB7
:1044B0007372635C647269766572735C737973633B
:1044C0006C6B5C63795F737973636C6B2E63000054
:1044D00080B50020FDF797F9002801D0FDF799FE7F
:1044E00001BD80B50120FDF78EF9002802D00E48ED
:1044F0000068804701BD80B50220FDF784F90028DF
:1045000001D0FFF737FE01BD80B50320FDF77BF931
:1045100001BD80B50420FDF776F9002802D00348DC
:104520000068804701BD0000F0060228F40602285A
:1045300080B50520FDF767F901BD80B50620FDF7C0
:1045400062F901BD433A5C536F75726365747265BD
:10455000655C435954344242375F4C696272617200
:10456000795C5365656B667265655F435954344287
:10457000425F4F70656E736F757263655F4C696201
:10458000726172795C6C69627261726965735C7A7E
:10459000665F636F6D6D6F6E5C7A665F636F6D6D86
:1045A0006F6E5F6669666F2E63000000433A5C536E
:1045B0006F75726365747265655C43595434424229
:1045C000375F4C6962726172795C5365656B6672C4
:1045D00065655F4359543442425F4F70656E736F37
:1045E000757263655F4C6962726172795C6C696255
:1045F0007261726965735C7A665F6472697665720E
:104600005C7A665F6472697665725F756172742E3A
:104610006300000030B4002512E050F8042BD307EB
:1046200044BF4A44521E091F042942F8045BFAD2CF
:1046300013468C0744BF15809B1CC90748BF1D70DB
:1046400050F8041B0029E8D130BC704710B5074969
:1046500079441831064C7C44163404E00A68081D7D
:10466000114488470146A142F8D110BD2C0000003A
:10467000480000004EF68851CEF20001086840F470
:1046800070000860BFF34F8FBFF36F8F4FF0017062
:10469000E1EE100A704700007DFFFFFF6C04000090
:1046A000340702280000000087C8FFFF4202000014
:1046B000B80000000000022804207146084202D021
:1046C000EFF3098001E0EFF3088000B50149884766
:1046D00000BD0000153808100000000000000000B8
:1046E000801C800803D0401C801EFCD100BF704796
:1046F000EFF3108072B6704780F3108870470000A7
:1047000000F00EF8002801D0FFF7A0FFAFF3008003
:104710000020AFF3008000F005F800F00DF8000075
:104720000020704780B5034800F008F8FDF7D0FD81
:10473000FEE700BF80B2E60E00F00EB880B5054976
:104740000860FFF79BFBFFF76BF90020FEF7ACF862
:1047500001BD0000880B022807463846FCF736FFEB
:10476000FBE700000D0A66696C65202573206C6903
:104770006E652025643A2025732E0D0A0000000086
:1047800004207146084201D0EFF30980EFF308805E
:1047900000B50149884700BD394808100548014661
:1047A00003B4684680F30988AFF30080FFF762FF27
:1047B000FFF7A6FFA5EDF5FE00000228FFFF072882
:1047C00000000020FF3F002000000000FF3F00002D
:1047D00000127A00000000000024F40000800000B5
:1047E00000800000008000000D0A66696C652025CD
:1047F00073206C696E652025642E0D0A0000000090
:1048000066696C653A206D646B2F257300000000AB
:10481000417373657274206572726F7200000000DC
:1048200066696C653A202573000000006C696E654E
:104830003A20256400000000816911F8021CC9B209
:10484000016070470301000010110010000000001B
:104850000000000000000000000000000000000058
:104860000000000000000000000000000000000048
:104870000000000000000000000000000000000038
:104880000000000000000000000000000000000028
:104890000000000000000000000000000000000018
:1048A0000000000000000000000000000000000008
:1048B000FFF7FEBFFFF700BFFFF7FEBEFFF7FCBE2E
:1048C000FFF7FEBFFFF7FEBFFFF7FEBFFFF7FEBF1C
:1048D000FFF7FEBFFFF7FEBFFFF7FEBFFFF7FEBF0C
:1048E000FFF7FEBFFFF7FEBFFFF7FEBF7047F00206
:1048F000FFF93F081004F1FF04F1FF04F1FF04F198
:10490000FF04F1FF04F17704200600000228ED48BF
:104910000810041003D1440810E30412F704100334
:10492000094508101304123104123B04100500005D
:1049300060400000650412640412630412620412F1
:1049400067040004664077010106000000000000D3
:104950000000000000000000000000000000000057
:104960000000000000000000000000000000000047
:104970000000000000000000000000000000000037
:104980000000000000000000000000000000000027
:104990000000000000000000000000000000000017
:1049A0000000000000000000000000000000000007
:1049B00000000000000000000000000000000000F7
:1049C00000000000000000000000000000000000E7
:1049D00000000000000000000000000000000000D7
:1049E00000000000000000000000000000000000C7
:1049F00000000000000000000000000000000000B7
:104A000000000000000000000000000000000000A6
:104A10000000000000000000000000000000000096
:104A20000000000000000000000000000000000086
:084A300000000000000000007E
:040000051008479DFB
:00000001FF
