:020000041008E2
:10000000000008286532081005380810F53508107A
:10001000093808100D3808101138081000000000C9
:10002000000000000000000000000000D5360810AD
:100030001538081000000000193808101D38081085
:100040003F2E0810652E08108B2E0810B12E0810B8
:10005000D72E0810FD2E0810232F0810492F081046
:100060002138081025380810293808102D380810B4
:100070003138081035380810393808103D38081064
:10008000DFF8C4110868C0F34000002801D0022046
:1000900002E0086810F001007047DFF8B001006866
:1000A00010F0010070470000C21E022A01D3012097
:1000B00002E0C01E0860002070471CB5FF2469469E
:1000C000FFF7F2FFC0B2002802D02000C0B207E064
:1000D000DFF8FC01009950F8210010F00100C0B2D7
:1000E00016BD0000002801D0032801D3012002E042
:1000F000401E0860002070471CB5FF246946FFF7CA
:10010000F1FFC0B2002802D02000C0B208E0DFF842
:10011000C401009909010844C06810F00100C0B290
:1001200016BD0000DFF8BC010068800810F0010077
:10013000704738B504002000C0B2082811D3DFF89A
:1001400098511822DFF89411280000F00DFC0020CF
:10015000E87540F65B00DFF888110860002000F0C9
:100160003BFCDFF8CC112000C0B251F82000C0F3F6
:100170000020002805D0E4B251F8240010F00F0050
:1001800000E0FF2032BD38B504002000C0B20828CE
:1001900011D3DFF844511822DFF84011280000F095
:1001A000E3FB0020E8754FF40960DFF834110860C4
:1001B000002000F011FCDFF87801E4B250F82400D0
:1001C000C0F30110C0B232BDDFF868211368C3F379
:1001D000072303601068C0F3C40008607047DFF8AD
:1001E00058211368C3F3072303601068C0F3C400E9
:1001F0000860704738B50400072C11D3DFF8D850D9
:100200001822DFF8C411280000F0AEFB0020E875CA
:100210004FF4CE70DFF8C8100860002000F0DCFB5F
:10022000DFF8A00150F8240010F00700010009B227
:10023000042907D1DFF8880150F8240010F01F00CE
:1002400050F4807000B232BD24152640401526407F
:10025000DFF8B01209688A03920B0260090E11F0F0
:100260000101C171DFF8A01209680A00D204D20CA2
:1002700082800A00120C02F0FF020281090C01F0D8
:10028000FF014181DFF84411096811F00F02027388
:100290000A00C2F3031242730A00120AD204D20CFB
:1002A000C281090F11F003010174DFF864130968BA
:1002B0000A00120A12F0070282710A00120CD2051B
:1002C000D20D4282890F11F00101017570470000C3
:1002D0004016264000192640840A02289033081050
:1002E000E00A0228100027401CB50C006946FFF701
:1002F000DBFE0100C9B2002901D0C0B217E0DFF86F
:10030000B404009950F8210010F07F012160C0F37F
:1003100004216160C0F30441A1600100090F11F0E4
:1003200003016173C00E10F001002073002016BDA0
:100330004012264008002040080420401CB50C0054
:100340006946FFF7CFFE0100C9B2002901D0C0B253
:1003500035E0DFF8101500980001085800F0FF02A2
:100360002260C0F304226260C0F30442A260000F66
:1003700010F0030020730098000108444268100048
:10038000C00F6073C2F30270002801D0012000E0AA
:100390000020A07322F07F422261009800010844EF
:1003A00080680100C90F21750100090E11F00101DB
:1003B0006175A075000C10F00700E075002016BDF7
:1003C0000001264000122640083408103815264047
:1003D00080B50100DFF86805182200F061FB0120FC
:1003E000DFF860150870002002BDDFF85C150968B1
:1003F000C90F002908D0DFF84C150978002907D16A
:100400000021016003207047002101600320FAE70A
:10041000DFF82C15096801600020F4E710B504002E
:10042000FFF72EFE002803D10020206003200DE0FE
:10043000DFF810050078002805D0DFF80405806893
:100440002060002002E000202060032010BD00009A
:10045000DFF8F0140978002905D0DFF8E4144968C2
:100460000160002002E00021016003207047DFF8F6
:10047000DC140968C90F002908D0DFF8C81409780E
:10048000002907D10021016003207047002101608D
:100490000320FAE7DFF8A814C96801600020F4E738
:1004A000DFF8AC140968C90F002908D0DFF89414EC
:1004B0000978002907D1002101600320704700213D
:1004C00001600320FAE7DFF8781409690160002071
:1004D000F4E710B50400FFF725FE002803D1002043
:1004E000206003200DE0DFF85C040078002805D0D0
:1004F000DFF84C0440692060002002E0002020600A
:10050000032010BD301526403415264010B50C00D0
:10051000C0B2FFF76FFE00280ED0012810D00228CD
:1005200012D0B0F5887F13D040F21111884213D059
:10053000B0F58A7F14D017E02000FFF756FF16E0D1
:100540002000FFF785FF12E02000FFF767FF0EE0B5
:100550002000FFF78CFF0AE02000FFF7BAFF06E05B
:100560002000FFF79DFF02E000202060032010BD67
:1005700080B501000020FFF7C9FF02BD80B503224E
:10058000D2B2824203D200200860012003E0401C66
:10059000C0B2FFF7BBFF02BD18B587B004006846C4
:1005A000FFF7E6FF0100C9B2002903D00021216056
:1005B000C0B22BE001A8FFF74BFE9DF81400022803
:1005C00003D100982060002020E0DFF88803006855
:1005D000C00F002808D0FFF760FDC0B2002807D187
:1005E00000202060032011E00098206000200DE032
:1005F000009901984143BDF80800B1FBF0F09DF867
:100600000B10491CB0FBF1F02060002008B010BDB9
:100610003C152640F0B58BB005000C00694628005B
:10062000C0B2FFF7ABFF0100C9B2002903D000211F
:100630002160C0B2BCE02800C0B202284CD307A998
:100640002800C0B2401CFFF74FFEC0B2002811D0F6
:10065000DFF804631822DFF80413300000F084F997
:100660000020F07540F66310DFF8F41208600020F7
:1006700000F0B2F94F482900C9B200EB810050F8F0
:10068000080CC00F002807D09DF82900022807D1C8
:100690000098206000208BE000982060002087E018
:1006A000EDB26D1C2800FFF708FD0100C9B200295A
:1006B00002D0C0B2FF2803D100202060032077E0E1
:1006C0000099079841430898B1FBF0F00999B0FBF5
:1006D000F1F0206000206BE001A92800C0B2401CAE
:1006E000FFF72CFEC0B2002811D0DFF86C62182290
:1006F000DFF86812300000F037F90020F07540F69E
:100700007F10DFF85C120860002000F065F95548A2
:100710002900C9B209014058C00F002807D09DF830
:100720001000022807D100982060002040E00098C7
:10073000206000203CE0EDB26D1C2800FFF7DCFCDF
:100740000100C9B2002902D0C0B2FF2803D10020A5
:10075000206003202CE09DF8110001281DD1009A93
:100760000023019E00273F0647EA16273606059814
:10077000002136184F41A6FB020106FB031107FBBF
:100780000211029A039BA3FB022300F00BFA000E56
:1007900040EA0120090E206009E0009901984143D8
:1007A0000298B1FBF0F00399B0FBF1F0206000205B
:1007B0000BB0F0BD0016264010B50323421E040006
:1007C000E4B2002C03D10800FFF7E6FE0CE01400B1
:1007D000DBB2E4B2A34204D31000C0B2FFF71AFFA9
:1007E00002E0C0B2FFF792FE10BD38B505000C0064
:1007F0002800C0B2FFF79DFC0100C9B2FF2904D157
:100800002000FFF7F2FDC0B21BE06946C0B2FFF75F
:10081000D3FF0100C9B2002903D000212160C0B27A
:100820000FE02800C0B2FFF7AEFCC0B2002805D030
:1008300002280BD006D303280CD00FE000982060CC
:10084000002032BD009840082060F9E70098800839
:100850002060F5E70098C0082060F1E700202060E4
:100860000320EEE7001926401FB5040002A901206D
:10087000FFF7BBFF0100C9B2002903D000212160AE
:10088000C0B21AE0694601A8FFF79EFC019800215A
:10089000421C71F1FF335B0143EAD26352010098BD
:1008A000002112184B4102980021490141EAD06110
:1008B000400100F077F92060002004B010BD1FB5A2
:1008C000040002A90120FFF790FF0100C9B200292E
:1008D00003D000212160C0B21AE0694601A8FFF7E9
:1008E0007EFC01980021421C71F1FF335B0143EA59
:1008F000D26352010098002112184B410298002146
:10090000490141EAD061400100F04CF9206000202B
:1009100004B010BD80B5DFF84C100A68C2F30322A2
:100920000E2A07D00968C1F303210D2905D1FFF76D
:10093000C6FF02BDFFF798FFFBE70120F9E70000C3
:100940006C0A0228000B02281815264008152640BC
:100950000C15264030152640840A02280834081059
:10096000E00A02280000204001B58B071AD1830756
:1009700024D1121F21D351F8043BA3F1013C2CEAEE
:10098000030C1CF0803C04BF40F8043BF1E79CFAE8
:100990008CFCBCFA8CF1C1F118018B40CB4040F8C3
:1009A000043B13E0042A09D311F8013B521E00F85E
:1009B000013B5BB18B07F7D1D9E7121D5AB111F892
:1009C000013B521E00F8013B03B1F8D111001CBFDE
:1009D000002200F003FA01BD01BEFEE780B5234A04
:1009E00023490B6893423ED00A60224A12684A6249
:1009F000214A8A6202684A6042688A608268CA60E4
:100A0000C2680A6102694A6142698A618269CA618F
:100A1000C2690A62F1EE102A12F0900F23D0174A31
:100A20008A62026ACA62426A0A63826A4A63C26A64
:100A30008A63026BCA63426B0A64826B4A64C26B4C
:100A40008A64026CCA64426C0A65826C4A65C26C34
:100A50008A65026DCA65426D0A66826D4A66C26D1C
:100A60008A66006EC86600F0E8F901BDFAF9F8F789
:100A7000BC09022828ED00E0A4A3A2A1ABAAA9A862
:100A800062B38B0708D0521E11F8013B00F8013BFE
:100A900000F024808B07F6D1830740F0208000BF50
:100AA000103A07D330B4B1E83810103AA0E8381043
:100AB000F9D230BC530724BFB1E80810A0E80810F1
:100AC00044BF51F8043B40F8043BD20724BF31F83F
:100AD000022B20F8022B44BF0B7803707047121FC3
:100AE00017D35B0009D151F8043B20F8023B1B0CE3
:100AF000121F20F8023BF6D20BE051F8043B00F83D
:100B0000013B1B0A20F8023B1B0C121F00F8013BA3
:100B1000F3D238BF121D521E24BF11F8013B00F85A
:100B2000013BF8D87047F0B4024610689568131876
:100B3000506803EB5004C00748BF4D44A3422DD07A
:100B400013F8016B16F0030004BF13F8010BC01C6F
:100B500031090F2907D113F8011B0F3103E013F8F6
:100B6000017B05F8017B401EF9D10029E6D013F87E
:100B7000010BC6F38106032E08BF13F8016B00EBCF
:100B80000620404228440026B71E8F421EBF10F8A0
:100B9000017B05F8017B761CF6D1CFE7F0BC02F1B2
:100BA0000C007047BBBBE1B1B2F5803F80F07E80A6
:100BB000022A1ED98C46B1FBF2F102FB11C31B04C1
:100BC00043EA1043B3FBF2FC02FB1C3380B240EA61
:100BD0000343B3FBF2F002FB103240EA0C40002367
:100BE0007047022A05D98446B0FBF2F002FB10C21E
:100BF00070474AB105D100F0010249085FEA3000B0
:100C0000704700220023704700F018B90B00020063
:100C1000002100207047904271EB030CF6D3B3F52E
:100C2000803F2FD2F0B5B3FA83F7B1FA81F4A7F180
:100C30000F0E3D1B5340CEF1200602FA0EF2F34197
:100C40005340B5F10F0746D80F3C2C444140C4F146
:100C50002006A040F1414140B1FBF3F603FB161121
:100C6000A2FB0645001BA94102D2761E80185941FD
:100C700080EA010221FA0EF362FA0EF200215A40D4
:100C80003046F0BD30B4B1FBF3FC03FB1C11A2FBFA
:100C90000C45001BA94103D2ACF1010C801859414D
:100CA00030BC02460B46604600217047B2F1807F9F
:100CB00065D3F0B5B2FA82F7B1FA81F4C7F10F0645
:100CC0003D1B22FA06F307F1110EF24120355A407E
:100CD000B5F10F07B8D94140C4F12006A040F14159
:100CE0004140B1FBF3FC03FB1C11A2FB0C45001BB4
:100CF000A94103D2BCF1010C801859410F2F12D326
:100D00000F3FC90341EA5041B1FBF3F603FB161153
:100D1000A2FB0645D4EBC030A94102D2761E801852
:100D2000594146EACC3C07B34140C7F12006B840E0
:100D3000F1414140B1FBF3F603FB1611A2FB06455E
:100D4000001BA94102D2761E8018594180EA010297
:100D500021FA0EF3C7F1200462FA0EF20CFA07F042
:100D60005A402CFA04F13043F0BD80EA010221FA26
:100D70000EF3002162FA0EF260465A40F0BD8C4636
:100D8000B1FBF2F102FB11C31B0243EA1063B3FB98
:100D9000F2FC02FB1C331B024CEA002043EA106306
:100DA000B3FBF2FC02FB1C331B024CEA002043EABB
:100DB0001063B3FBF2FC02FB1C331B024CEA002065
:100DC00043EA1063B3FBF2FC02FB1C324CEA002046
:100DD0000023704762F30F2262F31F42401810F0A5
:100DE000030308D0C91A1FD3DB0748BF00F8012D41
:100DF00028BF20F8022D130030B4144615461039D0
:100E000028BF20E93C00FAD8490728BF20E90C0098
:100E100048BF40F8042D890028BF20F8022D48BFA4
:100E200000F8012D30BC7047C91818BF00F8012D1B
:100E3000CB0728BF00F8012D7047FEE77047026816
:100E4000531C036011707047022801D3012010E089
:100E50000B00DBB2042B01DB01200AE0DFF8AC372A
:100E600003EB8000C9B2405C824201D3012000E064
:100E700000207047F8B504000F0015001E00022C7A
:100E800001D301202AE02A003900C9B22000FFF76F
:100E9000DBFF012801D1012020E006983900C9B20A
:100EA00002291ED1B6F5803F19D2202817D24FF45F
:100EB000C052DFF85C1763030B4403EB8503134454
:100EC0001F6866F317271F606403214401EB850147
:100ED00011440A6860F3C7020A600020F2BD0120D5
:100EE000FCE7FFB2032F1FD1B6F1807F1AD2202872
:100EF00018D24FF4E052DFF8181763030B4403EBEA
:100F0000850313441F6807F0FF0757EA06271F6091
:100F10006403214401EB850111440A6860F3C702B0
:100F20000A60DAE70120D9E70120D7E700B2001212
:100F3000C0B27047F8B505000E001700280000B2D7
:100F4000FFF7F4FF04002000C0B2022801D3012003
:100F500024E03A003100C9B22000C0B2FFF774FFAC
:100F6000012801D1012019E0DFF8A4162000C0B249
:100F7000400308442A00D2B200EB8200D0F8000CF3
:100F8000F6B266F3092067F30700E4B26403214474
:100F9000EDB201EB8501C1F8000C0020F2BD70B587
:100FA00004000D001600022C01D301201DE03200C8
:100FB0002900C9B22000FFF747FF012801D1012015
:100FC00013E0DFF84C166003085850F0004050F072
:100FD000407050F47F00EDB265F3092066F307001E
:100FE0006203885064030859002070BDD0F84003A4
:100FF0007047D0F80803C005C00D7047C0F8401214
:101000007047D0F80802C005C00D7047D0F808023C
:10101000C0F3C030704738B505002800FFF7F1FF76
:1010200004002800FFF7F2FF0419002C01D1012071
:1010300000E00020C0B232BDC0F8C81F7047D0F831
:10104000C80F7047C0F8881F7047D0F8880F7047E6
:10105000016851F000410160704738B50400150087
:10106000C9B2002906D002291ED010D3042935D0D8
:1010700027D340E0DFF89C05A060012020731120F9
:1010800060734FF48C70E0811220208239E0DFF829
:101090008805A060012020731120607340F21D10AC
:1010A000E0816B2020822CE0DFF87005A060012039
:1010B0002073112060734FF48E70E0816A202082CB
:1010C0001FE0DFF85C05A060022020731120607330
:1010D00040F21B10E0816920208212E0DFF8440515
:1010E000A06001202073132060734FF48D70E081A5
:1010F0006820208205E07C22DFF82C15002000F01B
:1011000036FCEDB2002D06D0022D1ED010D3042DDA
:1011100035D027D340E0DFF8FC04206000202071A8
:10112000112060714FF48C70E0811220208239E030
:10113000DFF8E4042060002020711120607140F28B
:101140001D10E0816B2020822CE0DFF8D0042060AD
:1011500000202071112060714FF48E70E0816A20B0
:1011600020821FE0DFF8B8042060012020711120E8
:10117000607140F21B10E0816920208212E0DFF8EC
:10118000A404206000202071132060714FF48D7042
:10119000E0816820208205E0A822DFF88C1400207E
:1011A00000F0E5FB31BD10B5C0B2002806D0022822
:1011B0000AD006D304280DD009D30EE0DFF86C4422
:1011C00011E0DFF86C440EE0DFF868440BE0DFF874
:1011D000684408E0DFF8644405E0BD22DFF8481405
:1011E000002000F0C4FB200010BD38B50400DFF87B
:1011F0005054C9B22000C0B255F82000FFF7FEFEDF
:101200002000C0B255F82000FFF705FF0028F7D0F6
:1012100031BD38B504000D0005E029782000C0B2CA
:10122000FFF7E3FF6D1C28780028F6D131BD70B5BB
:1012300004000D000020DFF808642000C0B256F85A
:101240002000FFF7D6FE002807D0E4B256F82400AD
:10125000FFF7CCFE2870012000E00020C0B270BD76
:1012600070B505000C00DFF8D8632800C0B256F84E
:101270002000FFF7EAFE4008400001002800C0B24D
:1012800056F82000FFF7DEFE2800C0B256F8200016
:10129000FFF7DBFE30F0020001002800C0B256F874
:1012A0002000FFF7CFFE2800C0B256F82000FFF75D
:1012B000CCFE30F0200001002800C0B256F820001B
:1012C000FFF7C0FE2800C0B256F82000FFF7BDFEB1
:1012D00030F0400001002800C0B256F82000FFF7AF
:1012E000B1FE2800C0B256F82000FFF7AEFE30F085
:1012F000100001002800C0B256F82000FFF7A2FE3F
:101300002800C0B256F82000FFF79FFE30F480702E
:1013100001002800C0B256F82000FFF793FE280015
:10132000C0B256F82000FFF790FE30F48060010054
:101330002800C0B256F82000FFF784FE002C0ED023
:101340002800C0B256F82000FFF779FE50F4007074
:101350000100EDB256F82500FFF774FE0DE02800FD
:10136000C0B256F82000FFF76AFE30F400700100AA
:10137000EDB256F82500FFF765FE70BD70B50500AB
:101380000C00DFF8BC622800C0B256F82000FFF75E
:1013900056FE4008400001002800C0B256F8200068
:1013A000FFF74AFE2800C0B256F82000FFF747FEBC
:1013B00030F0080001002800C0B256F82000FFF706
:1013C0003BFE2800C0B256F82000FFF738FE30F090
:1013D000200001002800C0B256F82000FFF72CFEC4
:1013E0002800C0B256F82000FFF729FE30F48070C4
:1013F00001002800C0B256F82000FFF71DFE2800AB
:10140000C0B256F82000FFF71AFE30F40070010059
:101410002800C0B256F82000FFF70EFE2800C0B228
:1014200056F82000FFF70BFE30F4006001002800A2
:10143000C0B256F82000FFF7FFFD002C0ED02800A8
:10144000C0B256F82000FFF7FAFD50F0040001008A
:10145000EDB256F82500FFF7EFFD0DE02800C0B211
:1014600056F82000FFF7EBFD30F004000100EDB26C
:1014700056F82500FFF7E0FD70BD2DE9F841A7B053
:1014800005000F00160028003100C0B2C9B2884222
:1014900001D1012000E000201C00DFF88C814FF416
:1014A000CE724146C0B200F062FA28002100C0B2FC
:1014B000C9B2884201D1012000E0002040F29D1213
:1014C0004146C0B200F053FA02A8142100F0D0FA4D
:1014D000342100220DF168084046FFF77BFC4C21C7
:1014E00000220DF11C084046FFF774FCFF003A0093
:1014F000002354480021FFF755FB07002200D2B219
:101500003100C9B202A8FFF7A8FD08201B909DF882
:101510000D008DF870001AAA9DF80C10029800F0CA
:1015200036FB06201B909DF80D008DF870001AAA5E
:101530009DF81410049800F02AFB00200790082062
:1015400008900820099002200B9000200C900020A9
:101550001290002014903A4C2800C0B254F8200099
:1015600000F096FC38492A00D2B2382042430A449F
:1015700007A92800C0B254F8200000F047FB28005B
:10158000C0B254F82000FFF763FD2A00D2B2032155
:10159000BDF91600FFF7CEFCBDF91600FFF7C6FC3B
:1015A00017F01F010091C7F357132A00D2B203218D
:1015B000C0B2FFF75FFCBDF91600FFF7B7FC2A00C9
:1015C000D2B20321C0B2FFF7EAFCBDF91800ADF8B2
:1015D00000000320ADF8020001208DF8040007226E
:1015E0001A482900C9B250F82110684600F0EEFCF4
:1015F00000212800C0B2FFF7C1FE00212800C0B2C0
:10160000FFF72EFE28B0BDE8F081000098370810E3
:10161000000004400000314000023140000531402C
:101620008008314000073140E83408100000604075
:10163000000065400000644000006340000062401C
:101640000C0702280080969824070228F806022832
:1016500082B000200190002000900020019009E05D
:101660000098401C00900098B0F5005FF8D30198F6
:10167000401C01900198B0F5805F02D200200090DC
:10168000F1E702B0704780B501000020FFF7C1FD0F
:1016900001BD2DE9F043ADF5137D07008846160026
:1016A0001C000020ADF802000020ADF80000002072
:1016B00002900020ADF804000020ADF8060040467E
:1016C00000F0A0FC0290DFF870532888002801D0B9
:1016D00028698047DFF864030078002800F0338130
:1016E0002888002800F01181BDF90600411CADF8E2
:1016F00006103A00010089B20020EB68984747467F
:10170000404600F07FFC02906888A97990FBF1F0D8
:10171000ADF804003800471C00780028FAD10020FA
:10172000ADF800000EE07F1E38782F2802D0387800
:101730005C2804D1BDF80000401CADF80000029800
:10174000401E0290BDF80000022802DA029800282C
:10175000E9D50298002806D47A1CDFF8E41253A8D1
:1017600000F06CFC0EE0BDF80000002805D13A0046
:10177000B44953A800F062FC04E03A00B04953A811
:1017800000F05CFC0020ADF8020042E0BDF8001063
:10179000BDF80020BDF8023053AF9BB2BDF9040084
:1017A000434313FA82F0385C43AA89B25054BDF81F
:1017B0000000401CADF80000BDF8000080B2BDF98B
:1017C000041088420EDA53A800F01CFCBDF800207B
:1017D000BDF802309BB2BDF904104B4313FA82F1FD
:1017E0008842D3D2002043A9BDF800208854BDF917
:1017F0000600411CADF8061043AAE97911FB00F17F
:1018000089B20020EB689847BDF80200401CADF893
:101810000200BDF8027053A800F0F4FBBDF90410FB
:10182000B0FBF1F0401CBFB2874203D20020ADF8FC
:101830000000C1E73200844953A800F0FFFBBDF966
:101840000600411CADF8061053AAE97911FB00F11E
:1018500089B20020EB689847002C74D00020ADF8C6
:10186000020041E0BDF80010BDF80020BDF80230D4
:101870009BB2BDF90400434313FA82F0205C43AAF3
:1018800089B25054BDF80000401CADF80000BDF80E
:10189000000080B2BDF9041088420EDA200000F08A
:1018A000B1FBBDF80020BDF802309BB2BDF90410B9
:1018B0004B4313FA82F18842D4D2002043A9BDF8E9
:1018C00000208854BDF90600411CADF8061043AA5B
:1018D000E97911FB00F189B20020EB689847BDF867
:1018E0000200401CADF80200BDF80260200000F0CC
:1018F00089FBBDF90410B0FBF1F0401CB6B2864282
:1019000021D20020ADF80000C1E74FF48071002221
:101910000DF10C094846FFF75DFA3800A9688847C1
:10192000002C07D0009433004246484903A800F039
:1019300085FB05E033004246454903A800F07EFBE5
:1019400003A8A96888470DF5137DBDE8F08310B59D
:101950003A480078002809D03F4C21000020FFF7CA
:1019600066FC012221003B4800F0EDFB10BD38B5BC
:101970000C001500C0B2002803D1384800780028B8
:1019800000D131BD36490878002800D0FEE708783C
:10199000401C087000F00EFB00232A002100314893
:1019A000FFF777FEFFF754FEF6E7002101804FF6C0
:1019B000FF7141808180FF218171C17100218160AF
:1019C0000021C1600021016170471B4902880A8023
:1019D00042884A8082888A8082798A71C279CA71F3
:1019E00082688A60C268CA60006908610120134980
:1019F0000870704700B585B06846FFF7D6FF1A48F3
:101A000002906846FFF7E1FF05B000BD80B5FFF723
:101A1000F1FF002300225FF4E1310020FFF72DFDEC
:101A20004023124A00210B4800F02DFD0121002027
:101A3000FFF7A4FC01BD0000CC0A0228010B02281C
:101A4000743708105437081080370810B83608105B
:101A50003C3708109C0A0228020B022822070228A1
:101A6000030B022864370810871608102C0A022876
:101A7000002200F027BD000030B4614B1818C009E7
:101A8000604C14EB001404290DD223681F25C800F4
:101A90008540AB43D2B212F01F02C90012FA01F125
:101AA000194321600CE0091F63681F25C8008540A9
:101AB000AB43D2B212F01F02C9008A401A436260DF
:101AC00030BC7047002A04D1012212FA01F14160B2
:101AD00003E0012212FA01F18160704710B489001D
:101AE000436C0F248C40A34312F00F0212FA01F151
:101AF0001943416410BC704710B4836C01248C40BE
:101B0000A34312F0010212FA01F11943816410BCDF
:101B1000704710B4C36C01248C40A34312F001023F
:101B200012FA01F11943C16410BC704710B44900A6
:101B30001031C36C03248C40A34312F0030212FA49
:101B400001F11943C16410BC70474269012212FAC5
:101B500001F141614069704710B4836901248C40F0
:101B6000A34312F0010212FA01F11943816110BC82
:101B7000704710B44900036C03248C40A34312F057
:101B8000030212FA01F11943016410BC7047F8B561
:101B900005000E0014000027002D2ED0002C2CD0A4
:101BA000226831002800FFF78DFF227A31002800DB
:101BB000FFF762FF626931002800FFF79DFFA2690D
:101BC00031002800FFF7A5FFE26931002800FFF788
:101BD000ADFF626831002800FFF780FFE268310046
:101BE0002800FFF7C6FF31002800FFF7AEFF22698B
:101BF00031002800FFF7B0FF00E0034F3800F2BDCE
:101C00000000CFBF0000304001005A002DE9F44F22
:101C1000DFF8D822DFF8D8321B68DFF8D842246812
:101C2000DFF8D4522D68DFF8D4623668DFF8D0725E
:101C30003F68DFF8D0C2DCF800C0DFF8CCE2DEF8A5
:101C400000E0DFF8C882D8F80080DFF8C492D9F845
:101C50000090DFF8C0A2DAF800A0002800F015819B
:101C6000002900F012810A68022A06D191F8262084
:101C7000002A02D15FF0000B03E0D1F804B0BBF101
:101C8000010B91F82420002A01D0012200E000225B
:101C900062F3104333F440436BF30303022262F315
:101CA000196303600A7812F0030262F31964046492
:101CB00091F82520002A01D0012200E0002262F3E1
:101CC0008615CA7E002A01D0012200E0002262F3BC
:101CD0008A254A7E002A01D0012200E0002262F318
:101CE00008258A7E002A01D0012200E0002262F34A
:101CF00049258A6B521E12F00F0262F313450A69DE
:101D0000521E12F00702ED08ED0015434A6962F316
:101D100004154A69520862F3451585640A7B002A56
:101D200001D0012200E0002262F308260A7E002A88
:101D300001D0012200E0002262F349268A68521E87
:101D400012F01F02760976011643C0F800630A7F7D
:101D500002F0FF023F0A3F02174391F8202002F0F1
:101D6000FF0262F31747C0F8107391F82720002A8A
:101D700001D0012200E0002262F3082C0A69521E01
:101D800012F007025FEADC0C5FEACC0C52EA0C0CA2
:101D90004A6962F3041C4A69520862F3451CC0F8A0
:101DA00044C00A7B002A01D0012200E0002262F335
:101DB000082E8A68521E12F01F025FEA5E1E5FEA5A
:101DC0004E1E52EA0E0E0A68012A01D1012200E0DD
:101DD000002262F3104EC0F800E291F83C2002F0BD
:101DE000FF025FEA18285FEA082852EA0808C0F8EC
:101DF000048391F82820002A01D0012200E000226B
:101E000062F35969CA6A012A01D1012200E0002265
:101E100062F318694A6B012A01D1012300E0002313
:101E2000009A63F3104991F8303003F0FF035FEA42
:101E300019295FEA092953EA0909C0F8509091F875
:101E4000443003F0FF035FEA1A2A5FEA0A2A53EAE2
:101E50000A0AC0F804A28B6CC0F8883F096CC0F86D
:101E6000C81F002A10D00020506000201060002001
:101E700090600020D060002010620020D06200201E
:101E80001063DFF89400506300221000BDE8F28F69
:101E9000DFF8881001605FF4401101640021816463
:101EA00040F20711C0F800130022C0F804230022FA
:101EB000C0F8102300224264C0F800120021C0F8CC
:101EC0000412002101650021C0F8C81E0021C0F8DD
:101ED000881E0021C0F8C81F0021C0F8881F0021FB
:101EE000C0F8081F0021C0F8481F70470160AA0011
:101EF000C0370810C4370810C8370810CC3708108E
:101F0000D0370810D4370810D8370810DC3708103D
:101F1000E0370810E4370810EFCDAB000F000003E6
:101F2000010009B2002908D4012210F01F018A40E3
:101F30001B4900B2400941F820207047010009B256
:101F4000002908D4012210F01F018A40154900B26F
:101F5000400941F820207047020012B2002A04D440
:101F60004901114A00B2115407E049010F4A00B279
:101F700010F00F00104400F8041C7047002800D136
:101F800062B60B480168491C0160704772B6084987
:101F90000868002802D00868401E0860086870477A
:101FA00000E100E080E200E000E400E018ED00E085
:101FB000FC0A022880B5FFF7E9FF00F09DFA01BD99
:101FC00080B5C9B200B2FFF7C7FF01BD70B504000C
:101FD0000D001600200000F09FFA2900B4F900005F
:101FE00000F0D9FA3100C9B2B4F90200FFF7E8FFF6
:101FF000B4F90200FFF7A2FFB4F90200FFF790FF67
:1020000070BD000000F10103810704D010F8011B2E
:10201000820781B1FAD10268A2F10131914311F036
:10202000803104BF50F8042FF6E709BAB1FA81F104
:1020300000EBD100401CC01A704700000CB430B552
:1020400083B00A4606A90291044600250194009532
:1020500002AB01A9084878441E3000F0BFFA019A8B
:10206000157000284EBF04460198041B204603B09B
:1020700030BC5DF80CFB00BFC7EDFFFF826889181C
:10208000816003E082684169521A82608168426916
:102090009142F7D27047C2688918C16003E0C268F4
:1020A0004169521AC260C16842699142F7D27047D1
:1020B00070B50400002C01D0012000E00020542263
:1020C000DFF8FC13C0B2FFF752FC0025207850F077
:1020D000010020700020A0600020E06060692061A5
:1020E0006078002803D0022810D007D315E061697A
:1020F000002266683000FEF76DFE0EE0616949005F
:10210000002266683000FEF765FE06E0616989001E
:10211000002266683000FEF75DFE00202070280077
:10212000C0B270BD10B50400002C01D0012000E049
:1021300000207022DFF88813C0B2FFF718FC606936
:102140002169401A10BD2DE9F84305001600002D45
:1021500001D0012000E000200C00AA22DFF860136B
:10216000C0B2FFF704FC00270020002C01D1032798
:10217000B5E0287810F0050F01D00427AFE02878EB
:1021800050F0040028702869B042C0F0A380D5F850
:102190001480A868B8EB0008B04567D268780028BA
:1021A00003D0022841D01FD390E042462100686846
:1021B000AB6800EB03094846FEF762FC4146280085
:1021C000FFF75CFFB6EB080204EB08016868AB6838
:1021D00000EB03042000FEF753FCB6EB0808414671
:1021E0002800FFF74BFF71E05FEA480221006868B2
:1021F000AB6800EB43094846FEF742FC4146280025
:10220000FFF73CFFB6EB0802520004EB4801686898
:10221000AB6800EB43042000FEF732FCB6EB080885
:1022200041462800FFF72AFF50E05FEA88022100BC
:102230006868AB6800EB83094846FEF721FC41461D
:102240002800FFF71BFFB6EB0802920004EB8801A1
:102250006868AB6800EB83042000FEF711FCB6EB66
:10226000080841462800FFF709FF2FE0687800289A
:1022700003D002281DD00ED328E032002100686868
:10228000AB6800EB03042000FEF7FAFB31002800E6
:10229000FFF7F4FE1AE0720021006868AB6800EBFB
:1022A00043042000FEF7ECFB31002800FFF7E6FEB8
:1022B0000CE0B20021006868AB6800EB83042000EA
:1022C000FEF7DEFB31002800FFF7D8FE2869861BE9
:1022D0002E6100E00527287810F0FB0028703800F8
:1022E000C0B2BDE8F2832DE9F04705000E001F00E3
:1022F000002D01D0012000E000201400DFF8C08193
:1023000040F25B124146C0B2FFF731FB002C01D016
:10231000012000E000204FF4AE724146C0B2FFF74A
:1023200026FB5FF0000800200020002E02D15FF0A5
:1023300003088BE0297811F0030F03D020605FF0D1
:1023400006089CE02800FFF7EDFE2168884209D2CC
:1023500020605FF00708002804D1287810F0F7000B
:1023600028708CE0287850F008002870D5F8149078
:10237000E868B9EB00092068814522D36878002815
:1023800003D0022813D008D35CE022686868E968AB
:1023900001443000FEF774FB54E022685200686884
:1023A000E96800EB41013000FEF76AFB4AE0226871
:1023B00092006868E96800EB81013000FEF760FB7D
:1023C00040E06878002803D0022827D011D339E0F4
:1023D0004A466868E9680144B2465046FEF750FB39
:1023E0002268B2EB090269684E443000FEF748FBF0
:1023F00028E05FEA49026868E96800EB4101B246FB
:102400005046FEF73DFB2268B2EB090252006968B4
:1024100006EB49063000FEF733FB13E05FEA890262
:102420006868E96800EB8101B2465046FEF728FB78
:102430002268B2EB09029200696806EB8906300057
:10244000FEF71EFB287810F0F7002870FFB2002F6F
:1024500015D128780B2802D15FF002080FE0287808
:1024600050F00200287021682800FFF714FE296947
:10247000206841182961287810F0FD002870404636
:10248000C0B2BDE8F087F8B504000E0017001D00CB
:10249000002C01D0012000E000204FF40772084911
:1024A000C0B2FFF764FA00206760002121706670F7
:1024B0000021A1600021E16025616561C0B2F2BD2B
:1024C0008034081000B500BF1300964694461039BA
:1024D00028BFA0E80C50FAD85FEA417C28BF0CC0A6
:1024E00048BF40F8042BC90728BF20F8022B48BF7B
:1024F00000F8012B00BD0000002007E00549C201E3
:102500008A5822F00042C301CA50401C3F28F5DB24
:10251000704700000000584030B40021234A13687F
:10252000234A1468002832D0224A1568C5F30325CF
:102530000E2D0FD01268C2F303220D2A28D1827803
:1025400012F00F022409240114430279002A15D045
:10255000012214E0827812F00F021B091B011343C1
:102560000279002A01D0012200E0002262F3DF7329
:10257000114AB0F9000042F8203009E0002262F36D
:10258000DF740E4AB0F9000042F8204000E006492E
:10259000080030BC70470A4B1A68002A03D01A683A
:1025A00000B242F82010704701005600E8370810CA
:1025B000EC3708100000204000A0204000C0204060
:1025C000EC06022870B505461C000846164604D0E5
:1025D00016F8011BA847641EFAD170BD2DE9FC4313
:1025E00083B08146884617461D4607E001233A46D8
:1025F00041464846FFF7E6FF80467F1C3878E0B149
:102600002528F3D17978BF1C252912D058295CD010
:10261000632915D0642918BF692917D06F2954D0B0
:10262000702957D073295BD0752918BF78294CD0F1
:10263000E4E74046C8478046E0E705B0BDE8F083E0
:10264000286850F8041B2860C9B2F2E7286850F8DF
:10265000046B2860002E03D52D214046C8478046D4
:1026600064216F2908BF082205D041F02000782896
:1026700014BF0A2210220B246429304602D1002EF6
:1026800048BF4042B0FBF2FC02FB1C003030641E2D
:10269000C3B23A2B05DA0DF804005FEA0C0003D14F
:1026A00004E040185138F6E7002CEBDC614211F1F0
:1026B0000B0F0DEB04064046BDD0C4F10B0416F819
:1026C000011BC847641EFAD1B5E7286850F8046BAF
:1026D0002860C6E7286850F8046B28607821C0E7B6
:1026E000286850F8046B28603046FFF78BFC040024
:1026F0004046A0D016F8011BC847641EFAD19AE7DD
:10270000022801D301200FE00B00DBB2042B01DB18
:10271000012009E07D4B03EB8000C9B2405C82429E
:1027200001D3012000E000207047F8B506000F003B
:1027300015001C00022E01D301201CE02A003900E4
:10274000C9B23000FFF7DCFF012801D1012012E0FF
:102750003800C0B2002811D1B4F5807F0CD26C488B
:102760007603304400EB850010F58050016864F377
:102770000F2101600020F2BD0120FCE7FFB2012F14
:1027800010D1B4F5803F0BD261487603304400EBA2
:10279000850010F5A050016864F317210160E9E796
:1027A0000120E8E70120E6E700B20012C0B270475E
:1027B000F8B505000E001700280000B2FFF7F4FF7F
:1027C00004002000C0B2022801D3012023E03A0017
:1027D0003100C9B22000C0B2FFF792FF012801D139
:1027E000012018E04A492000C0B2400308442A00F2
:1027F000D2B200EB8200D0F8000CF6B266F30920EA
:1028000067F30700E4B264032144EDB201EB8501F4
:10281000C1F8000C0020F2BD70B504000D001600D8
:10282000022C01D301201CE032002900C9B2200093
:10283000FFF766FF012801D1012012E0344960034F
:10284000085850F0004050F0407050F47F00EDB256
:1028500065F3092066F30700620388506403085992
:10286000002070BD38B594B0502100226C46200085
:10287000FEF7B0FA294C00220121B4F90000FFF75D
:1028800097FFB4F90000FFF78FFF09230022012111
:10289000C0B2FFF74AFFB4F90000FFF785FF00223E
:1028A0000121C0B2FFF7B8FF5FF0FF3000900020B9
:1028B0008DF8040000208DF8050000208DF806003A
:1028C00000208DF8080003208DF8440001201290AC
:1028D00001208DF807000F4C0F4D69462078C0018C
:1028E000284400F01DF82078C001284400F0D8F8F2
:1028F00000212078C001284400F0D7F82078C001DA
:10290000284400F0D4F815B030BD00009837081006
:102910000000044023070228000059402007022835
:1029200010B4012291F84C30052B03D291F84D30B0
:10293000052B01D31000A7E0002800F0A480002997
:1029400000F0A180514A12684B7963F392428B796F
:1029500013F0030363F311420B7A13F0070363F3DD
:102960001A62CB7963F39E720B7D63F3000291F8D8
:10297000243063F3410202600A7910F130031C68CD
:1029800062F307041C604A79012A0BD18A79002A74
:1029900002D10022826007E08A79012A04D10A6804
:1029A000826001E001228260CA6802610A694261B4
:1029B000CA6982610A6AC2610A680262344A12689C
:1029C0000B7E03F0FF03120A12021A4391F8303013
:1029D00003F0FF0363F3174291F8403003F0FF0365
:1029E00063F31F6291F8483003F0FF0363F30F2293
:1029F0004264284A126891F8383003F0FF03120A43
:102A000012021A4391F8283003F0FF0363F30F22F8
:102A10008264214A12688B7D13F0030392089200AE
:102A20001A4391F8253013F0030363F38B2291F8D6
:102A30002C3013F0030363F3051291F8343013F0D4
:102A4000030363F3092291F83C3013F0030363F3AB
:102A5000871291F8443013F0030363F38302C264D6
:102A60000E4A126891F84C3013F00703D208D200D6
:102A70001A4391F84D3013F0070363F306124265D1
:102A8000497D81670022100010BC7047F0370810A4
:102A9000F4370810F8370810FC3708100038081011
:102AA000016851F00041016070478160704740301B
:102AB000016851F0100101607047000038B500F066
:102AC00077F900F042F800F0C9F87149086880030E
:102AD00012D4BFF34F8FBFF36F8F00206D4A106089
:102AE000BFF34F8FBFF36F8F086850F4003008605A
:102AF000BFF34F8FBFF36F8F0868C00324D400204B
:102B0000654A1060BFF34F8F64480268C2F34E33CA
:102B1000C2F3C90443F6E07010EA431050EA84702F
:102B20005F4D28602000441E0028F3D11800431E8A
:102B30000028EDD1BFF34F8F086850F48030086053
:102B4000BFF34F8FBFF36F8F31BD70B586B068464E
:102B500054491822FDF7A4FF00200AE0694602004C
:102B6000D2B201EBC2014968491C11F0070F0DD127
:102B7000401C0100C9B2032909D269460200D2B241
:102B800011F8321011F0070FE8D0FEE7FEE7464CCF
:102B9000207810F0070F00D0FEE7444D2868401C55
:102BA00010F0070F00D0FEE7002622E06846310053
:102BB000C9B200EBC10041683000C0B252F8300029
:102BC00000F043F814E000200028EFD02168491EEF
:102BD0003000C0B252F8300000F037F868463100DB
:102BE000C9B200EBC10041682868401C00F02DF814
:102BF000761C3000C0B2032825D26A463000C0B22D
:102C000052F83000002813D020683100C9B252F8C1
:102C1000311088420AD368463100C9B200EBC100C6
:102C200040682168884201D30120CDE70020CBE72E
:102C300068463100C9B200EBC10040682168884293
:102C4000C1D30120C0E706B070BD0022002302E01E
:102C5000C0E9002308308842FAD3704730B41448E2
:102C600080081449144A002308E01C00E4B252F81A
:102C700024401D00EDB241F825405B1C1C000500FE
:102C8000E4B2EDB2AC42F0D30C48016030BC704706
:102C900014ED00E050EF00E084ED00E080ED00E096
:102CA00060EF00E00C3708100C33081010330810E8
:102CB00080000000800B02280000081008ED00E0F2
:102CC00010B5002042490860BFF34F8F41480168AA
:102CD000C1F34E32C1F3C90343F6E07010EA42106B
:102CE00050EA83703C4C20601800431E0028F3D14A
:102CF0001000421E0028EDD1BFF34F8FBFF36F8F3E
:102D0000BFF34F8FBFF36F8F002034490860BFF3CC
:102D10004F8FBFF36F8F00F001F810BD38B586B04C
:102D200068462F491822FDF7BBFE6846FDF750FBA9
:102D3000C0B200280DD02B4C18222B492000FDF7E3
:102D400013FE0020E0754E20284908600020FDF7A2
:102D500043FE274D2800FDF7DDFDC0B200280DD051
:102D6000204C182220492000FDF7FEFD0020E075D0
:102D700050201E4908600020FDF72EFE1D492868DE
:102D800008600A681C4882181C48B2FBF0F01C4A14
:102D900010601C48096801F2E7314FF47A72B1FB08
:102DA000F2F101600068C0031749086007B030BD48
:102DB00080B500F02DF815490A6852F470020A60D7
:102DC000BFF34F8FBFF36F8F00F026F801BD0000F7
:102DD00084ED00E080ED00E074EF00E050EF00E0F3
:102DE00024370810840A022814330810E00A022845
:102DF000E40A0228E80A02283F420F0040420F007E
:102E0000F00A0228EC0A0228F40A022888ED00E001
:102E1000EFF3108072B6704780F31088704700009F
:102E2000010009B2002908D4012210F01F018A40D4
:102E30004F4900B2400941F820207047FEE780B5B5
:102E40004C4800684C4801680800C00F002805D0B5
:102E50004A488905890D50F8210080470020FFF776
:102E6000DFFF01BD80B5464800684648016808009C
:102E7000C00F002805D041488905890D50F8210070
:102E800080470120FFF7CCFF01BD80B53E480068B8
:102E90003E4801680800C00F002805D03748890562
:102EA000890D50F8210080470220FFF7B9FF01BDCE
:102EB00080B537480068374801680800C00F00280F
:102EC00005D02E488905890D50F821008047032040
:102ED000FFF7A6FF01BD80B52F4800682F480168A5
:102EE0000800C00F002805D024488905890D50F836
:102EF000210080470420FFF793FF01BD80B52848DB
:102F00000068284801680800C00F002805D01B4849
:102F10008905890D50F8210080470520FFF780FFC3
:102F200001BD80B520480068204801680800C00F36
:102F3000002805D011488905890D50F821008047E7
:102F40000620FFF76DFF01BD80B5194800681948DC
:102F500001680800C00F002805D008488905890DC0
:102F600050F8210080470720FFF75AFF01BD0000FD
:102F700080E200E0A0370810000120400000022895
:102F8000A437081004012040A83708100801204089
:102F9000AC3708100C012040B03708101001204059
:102FA000B437081014012040B83708101801204029
:102FB000BC3708101C012040D0F8C80F7047C0F87B
:102FC000C01FD0F8C00F7047D0F8880F7047C0F806
:102FD000801FD0F8800F704780B50020FEF7E3F81F
:102FE000FFF7EAFF400708D50020FEF7DCF80421D0
:102FF000FFF7E5FFFEF7ABFC0DE00020FEF7D3F88E
:10300000FFF7E2FF800506D50020FEF7CCF84FF46D
:103010000071FFF7DCFF01BD80B50120FEF7C3F8AA
:10302000FFF7CAFF400709D50120FEF7BCF80421CD
:10303000FFF7C5FF3948006880470DE00120FEF723
:10304000B2F8FFF7C1FF800506D50120FEF7ABF807
:103050004FF40071FFF7BBFF01BD80B50220FEF702
:10306000A2F8FFF7A9FF400708D50220FEF79BF85A
:103070000421FFF7A4FF00F055F80DE00220FEF751
:1030800092F8FFF7A1FF800506D50220FEF78BF826
:103090004FF40071FFF79BFF01BD80B50320FEF7E1
:1030A00082F8FFF789FF400706D50320FEF77BF87B
:1030B0000421FFF784FF0DE00320FEF774F8FFF70B
:1030C00083FF800506D50320FEF76DF84FF40071ED
:1030D000FFF77DFF01BD80B50420FEF764F8FFF720
:1030E0006BFF400709D50420FEF75DF80421FFF7C8
:1030F00066FF0B48006880470DE00420FEF753F898
:10310000FFF762FF800506D50420FEF74CF84FF468
:103110000071FFF75CFF01BD00000000F00602280F
:10312000F40602281FB500200190404800780028CE
:1031300068D004E0012269463D48FFF704F869467B
:103140000220FEF774F80028F4D19DF800000A2848
:1031500058D106200190364C012301AA02A9200073
:10316000FFF7C1F8032228A10DF10B0000F064F86D
:10317000002810D12748017802293DD00121017093
:103180002000FEF7CFFF0190002301AA2249200072
:10319000FFF7A9F830E003221CA10DF10B0000F0AD
:1031A0004BF8002810D11D480178022924D00121B4
:1031B00001702000FEF7B6FF0190002301AA184914
:1031C0002000FFF790F817E0032211A10DF10B008A
:1031D00000F032F800280FD11248017802290BD0F4
:1031E000012101702000FEF79DFF0190002301AA3C
:1031F0000D492000FFF777F82000FEF759FF012066
:103200000C4908701FBD0000524D43004747410064
:1032100054485300070B0228BC080228060B02285A
:103220003C080228080B02283C090228050B02284A
:10323000B40A0228040B02288AB10B7890F800C067
:103240009C4506D110F8013B4BB1491C521EF4D1EC
:1032500005E002D24FF0FF30704701207047002098
:103260007047000072B61D4908684FEA102000F050
:103270000F000E2808BF1A490D2808BF1949072852
:1032800008BF1949082808BF1849086820F00B0032
:1032900008600868BFF34F8F154816490860BFF3F0
:1032A0004F8F1549086840F0070008601349086807
:1032B00040F007000860BFF34F8FBFF36F8F00200F
:1032C0000021124AE2E802016A45FBD10C4FB847DF
:1032D0000C4FB8470C4FB847FEE7000000002040F5
:1032E0000C0020400C0420400C0820400C0C204016
:1032F0000000081008ED00E090EF00E094EF00E01F
:10330000BD2A081089350810F136081000FF07287B
:10331000FFFF0728433A5C536F75726365747265EB
:10332000655C435954344242375F4C696272617242
:10333000795C5365656B667265655F4359543442C9
:10334000425F4F70656E736F757263655F4C696243
:10335000726172795C6C69627261726965735C73C7
:10336000646B5C747669696268346D5C7372635C0B
:1033700073797374656D5C73797374656D5F74765E
:1033800069696268346D5F636D372E630000000009
:10339000433A5C536F75726365747265655C43593B
:1033A00054344242375F4C6962726172795C536592
:1033B000656B667265655F4359543442425F4F7076
:1033C000656E736F757263655F4C69627261727965
:1033D0005C6C69627261726965735C73646B5C7466
:1033E0007669696268346D5C7372635C6472697675
:1033F0006572735C737973636C6B5C63795F73790B
:1034000073636C6B2E680000433A5C536F75726394
:1034100065747265655C435954344242375F4C6948
:1034200062726172795C5365656B667265655F4354
:1034300059543442425F4F70656E736F75726365A5
:103440005F4C6962726172795C6C69627261726907
:1034500065735C73646B5C747669696268346D5C17
:103460007372635C647269766572735C737973639B
:103470006C6B5C63795F737973636C6B2E630000B4
:10348000433A5C536F75726365747265655C43594A
:1034900054344242375F4C6962726172795C5365A1
:1034A000656B667265655F4359543442425F4F7085
:1034B000656E736F757263655F4C69627261727974
:1034C0005C6C69627261726965735C7A665F636F76
:1034D0006D6D6F6E5C7A665F636F6D6D6F6E5F664C
:1034E00069666F2E63000000433A5C536F75726328
:1034F00065747265655C435954344242375F4C6968
:1035000062726172795C5365656B667265655F4373
:1035100059543442425F4F70656E736F75726365C4
:103520005F4C6962726172795C6C69627261726926
:1035300065735C7A665F6472697665725C7A665FF1
:103540006472697665725F756172742E6300000043
:1035500030B4002512E050F8042BD30744BF4A448E
:10356000521E091F042942F8045BFAD213468C0745
:1035700044BF15809B1CC90748BF1D7050F8041B31
:103580000029E8D130BC704710B50749794418319B
:10359000064C7C44163404E00A68081D1144884730
:1035A0000146A142F8D110BD2C00000048000000E7
:1035B0004EF68851CEF20001086840F470000860B1
:1035C000BFF34F8FBFF36F8F4FF00170E1EE100A22
:1035D000704700007DFFFFFFE8030000240702287A
:1035E0000000000043D5FFFF5A0200009E000000CB
:1035F0000000022804207146084202D0EFF309803F
:1036000001E0EFF3088000B50149884700BD0000E4
:10361000DD090810000000000000000000000000AC
:10362000801C800803D0401C801EFCD100BF704766
:10363000EFF3108072B6704780F310887047000077
:1036400000F00EF8002801D0FFF79EFFAFF30080D6
:103650000020AFF3008000F005F800F00DF8000046
:103660000020704780B5034800F008F8FEF7CEF957
:10367000FEE700BF80B2E60E00F00EB880B5054947
:103680000860FFF71DFBFFF7EDF80020FEF776FC62
:1036900001BD0000F80A02280746384600F002F88B
:1036A000FBE7000080B5AFF30080024A110018204C
:1036B000ABBEFBE7260002000D0A66696C6520259B
:1036C00073206C696E652025643A2025732E0D0ADF
:1036D0000000000004207146084201D0EFF3098089
:1036E000EFF3088000B50149884700BD8D37081009
:1036F0000548014603B4684680F30988AFF30080AB
:10370000FFF756FFFFF79CFFA5EDF5FE000002282E
:10371000FFFF072800000020FF3F002000000000FE
:10372000FF3F000000127A00000000000024F400B7
:103730000080000000800000008000000D0A666923
:103740006C65202573206C696E652025642E0D0A3A
:103750000000000066696C653A206D646B2F25736C
:1037600000000000417373657274206572726F729D
:103770000000000066696C653A20257300000000B7
:103780006C696E653A20256400000000816911F8BB
:10379000021CC9B201607047030100001011001043
:1037A0000000000000000000000000000000000019
:1037B0000000000000000000000000000000000009
:1037C00000000000000000000000000000000000F9
:1037D00000000000000000000000000000000000E9
:1037E00000000000000000000000000000000000D9
:1037F00000000000000000000000000000000000C9
:1038000000000000FFF7FEBFFFF7F4BEFFF7F2BEB7
:10381000FFF7F0BEFFF7FEBFFFF7FEBFFFF7FEBFEB
:10382000FFF7FEBFFFF7FEBFFFF7FEBFFFF7FEBFCC
:10383000FFF7FEBFFFF7FEBFFFF7FEBFFFF7FEBFBC
:103840007047F002FF3D2E081004F1FF04F1FF0461
:10385000F1FF04F1FF04F1FF04F1770420060000FA
:10386000022841380810041007D92F081019300811
:10387000105B04129B0412D7041005000060400086
:1038800000650412640412630400046240770101BD
:103890000600000000000000000000000000000022
:1038A0000000000000000000000000000000000018
:1038B0000000000000000000000000000000000008
:1038C00000000000000000000000000000000000F8
:1038D00000000000000000000000000000000000E8
:1038E00000000000000000000000000000000000D8
:1038F00000000000000000000000000000000000C8
:1039000000000000000000000000000000000000B7
:1039100000000000000000000000000000000000A7
:103920000000000000000000000000000000000097
:103930000000000000000000000000000000000087
:103940000000000000000000000000000000000077
:103950000000000000000000000000000000000067
:103960000000000000000000000000000000000057
:103970000000000000000000000000000000000047
:0639800000000000000041
:04000005100836F1B8
:00000001FF
